:100000000C9490020C94C8020C94C8020C94C80280
:100010000C94C8020C94C8020C94C8020C94C80238
:100020000C94C8020C94C8020C94CC1F0C94881F2A
:100030000C94C9200C94C8020C94C8020C94C802F9
:100040000C94C8020C94C8020C94C8020C94C80208
:100050000C94C8020C94A5200C94C8020C94C802FD
:100060000C94C8020C94C8020C94C8020C94C802E8
:100070000C94C8020C94C8020C94C8020C94C802D8
:100080000C94C8020C94C8020C94C8020C94C802C8
:100090000C94C8020C94C8020C94C8020C94C802B8
:1000A0000C94C8020C94C8020C94C8026F00700033
:1000B000100307036E0007516D007300B15DB25D60
:1000C0001003A800B05D0751AF5DAE5D6A00AC00E3
:1000D000AE00AB00690007516800A80020042104AD
:1000E000220423041F0407511E0424044B004C0067
:1000F0004D004E004A000751490000007D007A0083
:10010000790000007C0007517B0000000000000027
:1001100000000000000007510000005C1250135066
:1001200014501550115007511050165000047F3FC5
:100130001F643214643214783C1E1E140A05000138
:100140000101010101010101020202020202020297
:100150000203030303030303030404040404040469
:10016000050505050506060606060707070707082D
:10017000080808090909090A0A0A0B0B0B0C0C0CE0
:100180000D0D0D0E0E0E0F0F0F101011111112127A
:1001900013131414151516161717181819191A1AF7
:1001A0001B1B1C1D1D1E1E1F202021222223242458
:1001B000252626272829292A2B2C2D2D2E2F303194
:1001C0003232333435363738393A3B3C3D3E3F40A6
:1001D0004142434445464748494A4C4D4E4F505191
:1001E0005354555658595A5B5D5E5F61626465664B
:1001F00068696B6C6D6F7072737577787A7B7D7ED2
:100200008082838587888A8C8E8F91939596989A21
:100210009C9EA0A2A3A5A7A9ABADAFB1B3B5B7BA39
:10022000BCBEC0C2C4C6C9CBCDCFD1D4D6D8DBDD0D
:10023000DFE2E4E7E9EBEEF0F3F5F8FAFDFFFFAA01
:100240007F55402223252628292A2C2D2F30323372
:100250003536383A3B3D3E4042434547494A4C4E8D
:100260005051535557595A5C5E6062646668696BB9
:100270006D6F71737577797B7D7F81838587898ABF
:100280008C8E90929496989A9C9E9FA1A3A5A7A8C5
:10029000AAACAEAFB1B3B4B6B8B9BBBCBEBFC1C2F5
:1002A000C3C5C6C7C9CACBCCCDCED0D1D2D2D3D488
:1002B000D5D6D7D7D8D9D9DADADBDBDBDCDCDCDCA6
:1002C000DCDDDDDDDDDCDCDCDCDCDBDBDBDADAD974
:1002D000D9D8D7D7D6D5D4D3D2D2D1D0CECDCCCBF6
:1002E000CAC9C7C6C5C3C2C1BFBEBCBBB9B8B6B414
:1002F000B3B1AFAEACAAA8A7A5A3A19F9E9C9A98A4
:10030000969492908E8C8A89878583817F7D7B7974
:10031000777573716F6D6B6968666462605E5C5A55
:100320005957555351504E4C4A4947454342403E18
:100330003D3B3A3836353332302F2D2C2A292826AA
:1003400025232205010902A10185020901A1000559
:100350000919012908150025019508750181020573
:1003600001093009311581257F950275088106093B
:10037000381581257F950175088106050C0A38021C
:100380001581257F950175088106C0C0050109808A
:10039000A101850319012AB700150126B7009501AF
:1003A00075108100C0050C0901A101850419012AFD
:1003B000A002150126A002950175108100C005015B
:1003C0000906A1018506050719E029E715002501A1
:1003D0009508750181020507190029EF150025010F
:1003E00095F075018102050819012905950575012A
:1003F0009102950175039101C005010906A101054E
:100400000719E029E7150025019508750181029576
:1004100001750881010507190029FF150026FF0055
:1004200095067508810005081901290595057501CE
:100430009102950175039101C009029F000401001A
:10044000A0FA0904000001030101000921110100C3
:100450000122400007058103080001090401000191
:100460000300000009211101000122B600070582E6
:1004700003200001080B0202010100000904020030
:100480000001010000092401000109000103090421
:1004900003000201030000072401000141000624BB
:1004A00002010100062402020200092403010301E3
:1004B00002010009240302040101010009050402EC
:1004C00040000500000525010101090583024000E7
:1004D00005000005250101031201000200000008CB
:1004E000A80300000100010200011A036E00610070
:1004F0006E006F002E00200073006C006900640025
:1005000065007200000014036B0065006500620066
:100510007700650072006B002E00000004030904E0
:1005200011241FBECFEFDAE0DEBFCDBF04B603FE5D
:1005300018C080918D0390918E03A0918F03B0918C
:1005400090038730904BA740B04B59F410928D0325
:1005500010928E0310928F0310929003E0E0F8E364
:10056000099511E0A0E0B1E0E4EAFDE402C00590E5
:100570000D92A439B107D9F723E0A4E9B1E001C095
:100580001D92AD38B207E1F70E94F0200C94BA2614
:100590000C940000A3E0B0E0E0EDF2E00C942B2618
:1005A0007C01162FD42EC22E8091C202843071F5A8
:1005B000E091B702F091B8023097C1F1C7010197FD
:1005C00063E070E00E94A025CB01880F991F860F81
:1005D000971F19834A83CB824E2D481B9E012F5FA4
:1005E0003F4FBC018DE992E00995E091BB02F0918B
:1005F000BC02309739F00C2D2D2D412FB7018DE91C
:1006000092E009952396E8E00C94472682E0E816EC
:10061000F10409F45AC083E0E816F104A9F081E07E
:10062000E816F10409F484C0F12CE12CE091B90240
:10063000F091BA023097C9F20C2D2D2D412FB70140
:100640008DE992E00995D1CF862F807F803A11F114
:1006500088F48038D1F0E091A102F091A2028039B3
:1006600029F7309719F3123F49F12C2D4D2D612FA9
:100670006F7027C0803E99F0803FB1F0E0919F02FB
:10068000F091A002803B91F6ECCFE091A302F091B3
:10069000A402E7CFE091A502F091A602E2CFE0919B
:1006A000A702F091A802DDCF623F09F0BFCFE09131
:1006B000A902F091AA02309709F4B8CF2C2D4D2D44
:1006C00062EF8DE992E0099590CF862F807F803D83
:1006D000B9F0803FD1F0E091AB02F091AC02803CE8
:1006E00009F0A4CF309709F4A1CF812F8D7F4D2D34
:1006F000612F6F70813FC9F08DE992E0099575CF48
:10070000E091AD02F091AE02EDCFE091AF02F09139
:10071000B002633F39F0613F09F088CFE091B10248
:10072000F091B202309709F481CF4D2D612FE4CFC3
:10073000E091B302F091B402683F38F4663F09F0EB
:1007400075CFE091B502F091B602309709F46ECF03
:10075000612F8DE992E0099548CFE8EDF0E08081C6
:100760008E7F80831092E2001092DA001092E100F6
:10077000A0EEB0E08C9181608C9380818F77808334
:1007800019BCA7EDB0E08C918E7F8C9380818F7E19
:10079000808310926E0208952091E4003091E5006C
:1007A00095E6A9012091EC00822F817020FF06C000
:1007B0008091E80080FF06C080E008952091E80065
:1007C00022FD1AC080919302882389F0853089F038
:1007D0008091EB0085FD0FC02091E4003091E50091
:1007E00042175307F9F29150E1F684E0089582E050
:1007F000089583E0089581E00895EF92FF920F93AA
:100800001F93CF937C018B010E94CC03C82F8111D1
:1008100017C08091E80085FD0BC08091E8008E77BD
:100820008093E8000E94CC03882399F3C82F08C066
:10083000F70181917F018093F1000150110949F77F
:100840008C2FCF911F910F91FF90EF900895809181
:10085000950287FF13C08091E80082FF06C0809157
:10086000E8008B778093E80004C0809193028111A7
:10087000F2CF0895809193028823D9F38091E80004
:1008800080FFF8CF8091E8008E77ECCF982F90937F
:10089000E900242F762F50E0891731F07091EC0099
:1008A0002091ED005091F00021FD07C09F5F97302F
:1008B00071F78093E90081E008953091EB003E7F6D
:1008C0003093EB003091ED003D7F3093ED0030919F
:1008D000EB0031603093EB007093EC002093ED005F
:1008E0005093F0002091EE0027FDE0CF80E00895C6
:1008F000B0E0A0E0EEE7F4E00C942B26C8EDD0E0E9
:1009000088818F7E8883E7EDF0E08081816080833D
:1009100084E082BF81E080936E0288818E7F88832D
:1009200002EE10E0F80110821092DA0081EEC82E7B
:10093000D12CF601108288818F7788838881806826
:10094000888388818F7D888319BC109293021092CE
:100950009402109292021092910290EEE92EF12CE4
:10096000F70180818B7F808388818160888342E06A
:1009700060E080E00E944604F60180818E7F8083E3
:10098000F801808181608083808188608083F701A5
:1009900080818E7F8083888180618883CDB7DEB738
:1009A000E8E00C944726FC0180919B0290919C0208
:1009B00086179707A0F06115710529F49091E8005A
:1009C0009E779093E80090E06115710551F49111C4
:1009D00008C08091E80082FF34C080E00895BC0127
:1009E000F2CF809193028823C1F18530C1F18091CB
:1009F000E80083FD30C08091E80082FDEACF80915D
:100A0000E80080FFE1CF8091F3002091F200382FC1
:100A10006115710519F02830310558F091E0283042
:100A2000310509F090E02091E8002E772093E8004E
:100A3000CBCF81918093F100615071092F5F3F4FBF
:100A4000E7CF80919302882341F0853041F0809177
:100A5000E80083FFBECF81E0089582E0089583E03F
:100A60000895089580917002089508950895982F2B
:100A7000907F903BE9F040F49039D1F0903AC1F08A
:100A80009038B1F080E00895903D19F020F4903C4A
:100A9000C9F782E00895903E59F0903F99F7815F41
:100AA0008F3080F7E82FF0E0EC57FE4F80810895FB
:100AB00083E00895A7E0B0E0E0E6F5E00C942B2693
:100AC0008C0108511F4F80919302843009F087C038
:100AD000809121018F708093E9008091E80082FF6E
:100AE0007EC08091E80085FF7AC00E94CC0381110E
:100AF00013C084E0E82EF12CCE0101966C018091A8
:100B0000E80085FD61C08091E8008B778093E80064
:100B10000E94CC03882399F38091E80085FD05C0ED
:100B20008091E8008B778093E800FA808F2D0E94F7
:100B30003705282FFD828B818E838C818F83211135
:100B40000BC08981843041F1873031F1863031F139
:100B500021E0853009F0B7CF30E0E5E0F0E0EC0FC0
:100B6000FD1FE30FF11DF0804FB7F894D8011196E7
:100B7000EC911197F0E0CF01019612966C9170E024
:100B80000E94B425D8015C915817190649F44FBF4B
:100B90003F5F321710F397CF23E0DECF22E0DCCFA8
:100BA00013968D919C911497E80FF91FF08211967E
:100BB0008C91119790E0019612966C9170E00E94D2
:100BC000B425F8018183E3CF8091F100D6018D93A4
:100BD0006D01B1E0EB1AF10809F091CF9DCF279696
:100BE000E8E00C944726A4E0B0E0E9EFF5E00C94CF
:100BF0002C267B01142FD22E4A832B830C83842F27
:100C00000E94370581113AC082E0E816F10489F1AB
:100C100083E0E816F10441F081E0E816F10429F5DB
:100C2000173F29F485E004C087E0073F09F084E01E
:100C30008983809193028430C1F480911C018F706C
:100C40008093E90050E040E064E070E0CE0101965E
:100C50000E94FD03811109C08091E80085FD05C057
:100C60008091E8008E778093E8002496E7E00C946A
:100C7000482687EFD812DBCF86E0DACF12951F70B7
:100C80001983D7CF9C014FB7F8948091650290915A
:100C90006602A0916702B09168024FBF821B930B5E
:100CA00008952FB7F8948091650290916602A09103
:100CB0006702B09168022FBF0895209162023091BF
:100CC00063022817390771F09093630280936202E0
:100CD000E0916002F0916102309721F00084F1858B
:100CE000E02D0995089520915E0230915F0228174A
:100CF000390771F090935F0280935E02E091600289
:100D0000F0916102309721F00680F781E02D09957E
:100D10000895E0916002F0916102309729F001900E
:100D2000F081E02D0995089580E00895FA01811180
:100D300001C0FB0109950895089580915902982FEB
:100D40009E7F29F4817082608093590208958A34CD
:100D5000E8F381708864F8CFAF92BF92DF92EF9290
:100D6000FF920F931F93CF93DF93082F162FE90164
:100D7000E42FF0E0E25CFE4F611110C0E4915E2FC1
:100D80004E2F4983E8835A83DF91CF911F910F91B2
:100D9000FF90EF90DF90BF90AF900895E62EF12C7A
:100DA0004491D42EE42FF0E026E0829FC00111246C
:100DB0002FEF30E0B9010E94A025802F90E0880F2E
:100DC000991F55E5569FD001579FB00D11248A1BDE
:100DD0009B0B982F990F890F5901AE18BF08AE9E33
:100DE000D001AF9EB00DBE9EB00D11245B2F189F99
:100DF00080011124012F11275901A01AB10AAE9EBA
:100E00008001AF9E100DBE9E100D11245901A81A2D
:100E1000B108AE9CC001AF9C900DBE9C900D1124FA
:100E2000892F9927281B390B2E9FC0012F9F900DCA
:100E30003E9F900D1124E92F62307105A1F050F40E
:100E40006115710509F49DCF6130710581F0EB2FBB
:100E5000512F97CF6430710569F080F066307105CD
:100E600009F48FCFF4CFE42F4B2F592F8ACFE42FE3
:100E7000412F87CFEB2F542F492F83CF4B2F5D2D41
:100E8000E12F7FCF0E9451069C0190913E028091FC
:100E90003F02982B21F030933B0220933A0290912D
:100EA000400280914102982B21F030933902209327
:100EB0003802E0916002F0916102309749F082E0DF
:100EC00080933C020480F581E02D8CE392E009954B
:100ED000089540913E028D3E59F480913F0287FF74
:100EE0000DC010923F0241110BC01092360208C093
:100EF0008E3E81F480913F0218169CF3442381F0CA
:100F00008091400290914102892B09F05AC01092C1
:100F1000350208958F3E49F447FFF0CF10923E020C
:100F200080913F028111ECCFE0CF803F19F414167D
:100F3000ACF3E4CF90914002893F29F41916F4F6FE
:100F400010924002DBCF8A3F19F497FFD7CFF8CF3A
:100F5000909141028B3F29F497FFD0CF109241022C
:100F6000CDCF8C3F19F41916CCF3C8CF9FE0980F62
:100F7000983090F4815F990B21E030E0B90102C014
:100F8000660F771F8A95E2F7CB01809590913D021D
:100F9000892380933D02B2CF8D3F31F48091370297
:100FA0008E7F80933702AACF8E3F21F48091370243
:100FB0008D7FF7CF8F3F09F0A1CF809137028B7FD4
:100FC000F0CF08958091370280FD16C081FD16C0D4
:100FD00082FD16C0809135028823A1F0883280F40A
:100FE00028E0829FC001112468E270E00E94B425CD
:100FF000862F672B39F0089582E0089584E00895E4
:1010000088E0089581E008958091370280FD14C042
:1010100081FD14C082FD16C080913602882381F0C4
:101020008E3180F420E5829FC00111246EE170E0D2
:101030000E94B425862F089584E1089588E20895DA
:1010400088E0089580E508958D3E31F40E940408FB
:10105000819580933F0208958E3E19F40E94040802
:10106000F8CF8F3E31F40E940408819580933E02B0
:101070000895803F19F40E940408F8CF893F29F4AD
:101080000E94E2078093400208958A3F21F40E9463
:10109000E2078195F7CF8B3F31F40E94E2078195FB
:1010A0008093410208958C3F19F40E94E207F8CF23
:1010B0009FE0980F983070F4815F990B21E030E049
:1010C00001C0220F8A95EAF780913D02822B80931E
:1010D0003D0208958D3F31F4809137028160809305
:1010E000370208958E3F21F4809137028260F7CF56
:1010F0008F3FB9F7809137028460F1CF80E0089587
:10110000F894E82FE295EF70F0E031A1282F2F70CE
:1011100081E090E001C0880F2A95EAF7982F90951A
:10112000932391A392A1892B82A3789408959091FF
:10113000690292FF06C0282F28712830F9F4877FB2
:10114000846093FF06C0282F28712831F1F4877E30
:10115000846120916A0220FF06C0382F3871383030
:10116000D9F4877F816021FF06C0282F287128319C
:10117000D1F4877E816194FD877E0895282F2471A4
:101180002430F9F68B7F8860DCCF282F247124313E
:1011900001F78B7E8861DDCF382F3171313019F73F
:1011A0008E7F8860E0CF282F2171213121F78E7E3C
:1011B0008861E1CF7230A8F4643098F4E82FF0E051
:1011C000EE0FFF1FE70FF11DEE0FFF1FEE0FFF1FCA
:1011D000E60FF11DEE0FFF1FE455FF4F859194912F
:1011E000089580E090E00895CF93DF93EC0182387A
:1011F0009105A9F1D8F58133910509F496C048F518
:101200008932910509F48AC08A9709F495C0C115FD
:1012100021E5D20708F0BCC0C11530E5D30708F0BE
:1012200014C1C83ED10508F09CC0C03ED10560F590
:10123000C83AD10508F087C0C53AD10508F0FDC00D
:10124000C130D10509F12097F9F0C430D105E0F49F
:1012500040C08533910509F45AC0C997C1F6809101
:101260006902837089F0C0EED0E00EC0833E910524
:1012700099F170F4803E910501F1823E910539F6B5
:101280008091690282FD21C0CE01DF91CF91089546
:10129000863E910561F1873E910571F1843E91058D
:1012A00009F0B5CF80916A0281FFEECF809169028B
:1012B000C7EED0E084FD0DC0E7CF8091690280FDCC
:1012C00012C190916A0290FFDFCFC3EED0E084FF9D
:1012D000DBCFD0E0C0E0D8CF8091690282FD06C1AB
:1012E00090916A0290FDBFCF84FFCECFF2CF809164
:1012F000690283FDDDCFC8CF8091690283FDF9C00B
:1013000090916A0291FFF0CFC4EED0E0BDCF809102
:10131000690285FFB9CFC9E2D0E0B6CF80916902FA
:1013200085FFB2CFC5E3D0E0AFCF8091690286FFE1
:10133000ABCFCAE2D0E0A8CF8091690286FFA4CFEC
:10134000C1E3D0E0A1CFCF3BD10518F6C85AD0E019
:10135000CC0FDD1FC55DDE4F0990D881C02DD46450
:1013600093CFC11540E2D40758F4C11581E0D807E6
:1013700008F08ACFCD3ED10508F4ABCFD06584CF3D
:10138000C11590E4D90708F4A4CFDF70D06A7CCFF0
:10139000C11525E5D20700F5C11534E5D30708F0DE
:1013A0008AC0C11543E5D40708F071C0C11582E5B4
:1013B000D80708F467C0CE018370992721E030E098
:1013C00002C0220F331F8A95E2F7C695C69580E2C8
:1013D000C89FE001112452C0C11599E5D907A8F4AE
:1013E000C11528E5D20708F06BC0C11536E5D30753
:1013F00008F06FCF8C2F0E949708C82FD0E0DC2F09
:10140000CC27CC27DF71D0623FCFC1154AE5D40786
:1014100008F45BC0CE0190568115904208F059CF78
:101420008D2F8F710E94970890E0982F882788272A
:101430009F719C012C2BE901E6CFC55AD0E0C85D15
:10144000DE4FC881D0E0D0641FCFCE01E4E0969596
:101450008795EA95E1F783702C2F269526952370C2
:1014600040E2249F90011124382B8C2F8370C1E01F
:10147000D0E002C0CC0FDD1F8A95E2F7C22BD32B40
:10148000DC6802CFDC2FCC27C16FD06AFDCECE0145
:101490008370992721E030E002C0220F331F8A9524
:1014A000E2F7C695C69590E2C99FE0011124C22BD0
:1014B000D32BDA68E9CEDC2FCC27C46FD06AE4CE18
:1014C000DC2FCC27C06FD06ADFCE8C2F8F700E94AC
:1014D000970834E0D695C7953A95E1F7CF709C2FE1
:1014E000EC01D069D1CEC9E3D0E0CECEC2EED0E0DF
:1014F000CBCEC6EED0E0C8CE8091170281111092FB
:1015000017020895809590911602982390931602E1
:101510000895909127019923D1F09091690297FF46
:1015200016C0E82FE695E695E695EE31E0F4F0E09A
:10153000EA56FE4F282F277081E090E001C0880F07
:101540002A95EAF780959281892382830895E8E9B4
:10155000F1E09191891303C0DF0111971C9291E092
:10156000EE39F907B1F70895909127019923C1F059
:101570009091690297FF14C0E82FE695E695E695ED
:10158000EE31F8F4F0E0EA56FE4F877021E030E0EB
:1015900001C0220F8A95EAF78281822B8283089507
:1015A000A8E9B1E0EFEF90E02D91821751F0EF3F05
:1015B00019F4211101C0E92F9F5F9630A9F7EF3F81
:1015C00009F408950E2E000CFF0BEA56FE4FE6CFED
:1015D0008091F3019091C201981301C008958F5F2B
:1015E0008770FACFB0E0A0E0E8EFFAE00C942A268A
:1015F0008C01C0902802D0902902E0902A02F0903D
:101600002B028091180290911902A0911A02B091B8
:101610001B02C82AD92AEA2AFB2ACFE1D0E0BC2E35
:10162000D701C6010C2E04C0B695A795979587954E
:101630000A94D2F780FD09C0219788F7B12C8B2D31
:10164000CDB7DEB7E9E00C944626B8018C2F0E9496
:10165000DA080E94F408019779F3F1CFCF93DF9372
:10166000EC010E94F20ABE010E94DA080E94F4080E
:10167000DF91CF910895923018F5843008F524E079
:10168000929FB0011124680F711DE7EBF1E050E06B
:1016900040E080E0219130E0062E02C0369527958B
:1016A0000A94E2F721703327042E01C0220F0A9416
:1016B000EAF7822B4F5F5F4F4530510559F7089588
:1016C00080E00895923040F5843030F544E0949FF6
:1016D00090011124820F932F911D21E001C0220F50
:1016E0008A95EAF7E7EBF1E050E040E070E03191F5
:1016F000DF011197CB01042E02C0969587950A94BD
:10170000E2F7817081958327822383278C934F5F33
:101710005F4F4530510559F70895FC018081918153
:101720000E942E0B92959F70963091F058F4925F24
:101730009F70923058F4803F19F030F4883E30F4B6
:1017400081E008959A5FF4CF843FD1F380E008955B
:10175000883EB0F3813FD1F7F3CF96E890937A00BB
:10176000982F9072906890937B008F718064809323
:101770007C0080917A00806480937A0080917A0066
:1017800086FDFCCF809178002091790090917A00BD
:101790009F7790937A00922F089580936B027093B5
:1017A0006D0260936C0280919302843001F582E0B7
:1017B0008093E9008FEF9091E800815095FD06C07D
:1017C00095ED9A95F1F700008111F5CF8091E80031
:1017D00085FF0DC050E040E063E070E08BE692E0F2
:1017E0000E94FD038091E8008E778093E8000895C1
:1017F000BC0184E00E94CD0B0895BC0183E00E94EF
:10180000CD0B08959C0182E08093E9009FEF8091C9
:10181000E800915085FD06C085ED8A95F1F700003E
:101820009111F5CF8091E80085FF0CC050E040E0B9
:1018300066E070E0C9010E94FD038091E8008E77A8
:101840008093E8000895CF93DF93EC018091270106
:101850008823B1F18091690287FF32C060E282E0A3
:101860008093E9008FEF9091E800815095FD06C0CC
:1018700095ED9A95F1F700008111F5CF8091E80080
:1018800085FF1BC08091270170E050E040E081118E
:1018900004C050E040E068E070E0CE010E94FD032B
:1018A0008091E8008E778093E80080E2FE01A1E756
:1018B000B2E001900D928A95E1F7DF91CF91089502
:1018C00068E081E0CDCF81E08093E00080E280930A
:1018D000D8001092C9008FE19EE40197F1F700C093
:1018E000000087E090EBDC0180938D0390938E03E2
:1018F000A0938F03B093900388E19CE00FB6F89417
:10190000A895809360000FBE90936000FFCF8091F8
:10191000590280FD0AC0EDE4F2E0118210821282C9
:10192000339652E0E935F507C1F7869A31B33F7B2C
:1019300021B320644FB7F8948DE492E0FC015191FB
:10194000CF0168E021BB000000C057FF31BB550F3D
:10195000000000C000C000C031BB00C06A9591F714
:10196000F2E089359F0751F74FBF8FE594E001976B
:10197000F1F700C000000895EF92FF920F931F93BC
:10198000CF93DF938C01CDE4D2E0F12CE12CF80170
:10199000948160915B0280915A02F2E0EF16F104AB
:1019A000ECF49923E9F09E0140915C020E94AC06A0
:1019B0002FEFE21AF20A239684E0E816F10439F7D1
:1019C0000E94870CF801848190E00196817099272C
:1019D0008483CDB7DEB7E6E00C944926992319F34A
:1019E0009E0140E0E3CFB0E0A0E0E9EFFCE00C9422
:1019F0002726EC014C81042F10E09801D8010E94A9
:101A0000F8259B01AC010E940E264B015C01E0E22F
:101A1000F0E0E01BF10BA5E5B0E0AC019B010E94FA
:101A20000E266B017C019F01DF010E94F0259B01C6
:101A3000AC010E9419269B01AC01280D391D4A1DDD
:101A40005B1DC701B6010E94C825F22E822F90E0CF
:101A500039E23F15A0F143E0249F90011124359510
:101A60002795122F10959DE4C92E92E0D92E00E003
:101A700085E5E82EEF18802F869589F58E2D960145
:101A8000412F60915B020E94AC060F5F53E0C50ED0
:101A9000D11C043081F70E94870C9C8181E099233E
:101AA00019F0903219F48FEF80931A0180911A0186
:101AB000890F8C83CDB7DEB7ECE00C94432625E587
:101AC00030E0A901481B590BCA019A01220F331FAC
:101AD000280F391F37FFC3CF2F5F3F4FC0CF8F2D48
:101AE000CECF0F931F93CF93DF93CDE4D2E0FE01CF
:101AF000118210821282339682E0E935F807C1F72D
:101B000010E000E080914B02082E000C990B0817A2
:101B100019078CF180911901082E000C990B801780
:101B200091074CF19E0140915C0260915B028091B3
:101B30005A020E94AC060F5F1F4F23960430110516
:101B400009F70E94870C8091180190914B02980F21
:101B500090934B0220911901280F2093190112161E
:101B600014F493301CF0819580931801DF91CF918C
:101B70001F910F910895198218821A82DCCFB0E06C
:101B8000A0E0E5ECFDE00C942B26FC018281DD2435
:101B9000DA9480FD02C0DD24D394CDE4D2E010E0DD
:101BA00000E0198218821A8294E0E92EF12CC12CEF
:101BB00080914A028C0D8530ACF18370082E000CA8
:101BC000990B8017910791F480915C028E9DA00182
:101BD0008F9D500D112455954795559547959E011C
:101BE00060915B0280915A020E94AC06CD0CF1E03C
:101BF000EF1AF108E9F60F5F1F4F23960430110525
:101C000081F60E94870C80914A0291E0D91210C09F
:101C100081110CC083E080934A02CDB7DEB7E8E0C3
:101C20000C94472687FFCACF8C5FC8CF8150F3CF73
:101C300090E0019683709927EECFEF92FF921F9369
:101C4000CF93DF93EC018DE4E82E82E0F82E10E0D4
:101C50008C81970140915C0260915B02810F0E9430
:101C6000AC06115C83E0E80EF11C1C3F89F70E9472
:101C7000870C9A818C8190FF08C08F5F8C83DF91E5
:101C8000CF911F91FF90EF9008958150F7CF9091E1
:101C9000590290FF0CC0EDE4F2E08183608342833F
:101CA000339692E0E935F907C1F70E94870C089551
:101CB000A3E0B0E0EEE5FEE00C942F268C018091CD
:101CC0004C0281110AC09E012F5F3F4F4FEF6FEF13
:101CD0000E94AC068A8180934C02F80164816130D5
:101CE00069F080914C0240E0662361F040E0623090
:101CF00011F440914C0280E060E004C060914C021D
:101D000040E080E00E94470EF801848190E0019657
:101D100063E070E00E94B42584832396E4E00C9491
:101D20004B26A3E0B0E0E7E9FEE00C943126909169
:101D3000590290FF0AC09E012F5F3F4F0E94AC06E0
:101D40004B8169818A810E94470E2396E2E00C94C0
:101D50004D26CF93DF93EC01E9E5F2E04381628108
:101D60008C810E94910E8C818F5F8C83DF91CF914B
:101D70000895CF93DF93EC01EC81F0E0ED5BFD4F34
:101D80004491E9E5F2E0628181810E94910E8C81AB
:101D90008F5F8C83DF91CF91089560915902669592
:101DA00070E04BE050E08DE091E00E945826892BD6
:101DB00019F481E0809349020E94510690934302F6
:101DC000809342020895CF92DF92EF92FF926B01CF
:101DD0007C010E949D06B701A60188E090E00E9468
:101DE0009826FF90EF90DF90CF900895A3E0B0E0A9
:101DF000ECEFFEE00C942626F82EB62EE42EA22E52
:101E00009091590290FF29C0E92FE695AE2FB0E0DE
:101E1000A15ABE4F8C91809348029E7F923009F563
:101E20009E012F5F3F4F8F2D0E94AC064B81698131
:101E30008A810E94470EF0925A02B0925B02E092B1
:101E40005C02AA2051F06091590270915A0280916F
:101E50005B0290915C020E94E30E2396EDE00C94ED
:101E60004226823019F4E0905C02E5CF863019F406
:101E7000F0905A02E0CF8930D9F38931E1F6E95187
:101E80002E2F2170722EE695F0E0E25CFD4FE4917A
:101E90000E2F10E03DE4C32E32E0D32E912C812C86
:101EA000C4019695879596958795711013C08F0DEF
:101EB00096014E2D6B2D0E94AC06800E911E83E084
:101EC000C80ED11C29E5C21622E0D20649F70E94AD
:101ED000870CB1CF2F2D281B822FEACFE9E5F2E046
:101EE000438128E0421B08F440E021E062818181C7
:101EF0000E94F60E0895E9E5F2E0438128E0420FE2
:101F000008F44FEF21E0628181810E94F60E08956E
:101F1000E9E5F2E0628128E0621B08F460E021E07C
:101F2000438181810E94F60E0895E9E5F2E0628125
:101F300028E0620F08F46FEF21E0438181810E9465
:101F4000F60E0895E9E5F2E0818121E043816281A6
:101F500088500E94F60E0895E9E5F2E0818121E0C3
:101F600043816281885F0E94F60E089580915D0230
:101F7000882319F0815080935D026091590270911D
:101F80005A0280915B0290915C020E94E30E0895D8
:101F900080915D02833018F48F5F80935D026091C1
:101FA000590270915A0280915B0290915C020E94EA
:101FB000E30E08959091590290FF2CC09170811109
:101FC0002AC0926090935902662351F060915902A1
:101FD00070915A0280915B0290915C020E94E30E24
:101FE00060915902669570E04BE050E08DE091E021
:101FF0000E945826892BB1F01092490281E080930B
:10200000450220E040915C0260915B0280915A029F
:102010000E94F60E0895853210F09864D3CF880F91
:10202000982BD0CF0E94CD0EE9CF80915902869592
:10203000815009F484E261E00E94DA0F08958091F2
:10204000590286958F5F853208F081E061E00E9439
:10205000DA0F08959091590290FF08C0969598174D
:1020600028F0961718F40E941F10089561E00E944E
:10207000DA0F0895E9E5F2E083E0808311828FEFC3
:1020800082838383148260817181828193810E9423
:10209000E30E0895A2E0B0E0E0E5F0E10C9428261C
:1020A0001A821982F9E5EF2EF1E0FF2E10E000E030
:1020B000CC24C394D12CBFE5AB2EB1E0BB2EF701ED
:1020C00081917F018F3F09F445C0F894E82FE29594
:1020D000EF70F0E021A18F70A60102C0440F551FE0
:1020E0008A95E2F7CA01922F982B91A392A180952D
:1020F000892382A3789400C0EBE5F1E0912C31E0D4
:1021000021912F3F09F45DC0A22FA295AF70B0E0DE
:1021100090968C9190E02F7002C0959587952A95A6
:10212000E2F780FD4EC0832F982A330FAE16BF060C
:1021300039F7F701319780818F3F11F00E948008B5
:1021400050EA5A95F1F7E1E0F0E0EC0FFD1FE00FE7
:10215000F11F90820130110589F542E050E0BE0187
:102160006F5F7F4F86E292E00E94652611E0009744
:1021700009F410E0892B39F189819A819093270223
:102180008093260281E080931E020E945106909364
:102190001D0280931C0280911C0290911D020E94DE
:1021A00042060597A0F08091260280932F0280912D
:1021B00027028093300210921E0209C001E010E055
:1021C0007ECF80E0B1CF80911E028111E4CF80915B
:1021D000250291E0980F9093250281116FC080E253
:1021E0000E94AD0BE3E095958795EA95E1F7209184
:1021F0002302309124028217930709F45FC080E222
:102200000E94AD0B73E0959587957A95E1F701975C
:1022100020912102309122028217930709F44EC0C7
:1022200080E20E94AD0B63E0959587956A95E1F792
:10223000019620911F023091200282179307F1F13D
:1022400080E20E94AD0B23E0959587952A95E1F7F2
:102250008095082F0F77209100012F77E0919D0244
:10226000F0919E0242EB63E070E08DE992E0099507
:1022700080E20E94AD0B33E0959587953A95E1F7A2
:102280000197909322028093210280E20E94AD0B7D
:1022900043E0959587954A95E1F701969093200242
:1022A00080931F0280E20E94AD0B53E095958795C5
:1022B0005A95E1F79093240280932302812F22966E
:1022C000EBE00C9444268091160290911502892B24
:1022D00080939601909117029923A1F0892B809306
:1022E0009601809127018823E1F18091690287FF9F
:1022F00038C08EE1E8E9F1E090E08150A0F591115D
:102300000E947C0A40E250E065EF71E086E991E0CE
:102310000E946526892B21F180E2E6E9F1E0A5EF34
:10232000B1E001900D928A95E1F7E0916002F091A1
:1023300061023097A9F080912701882359F080919C
:10234000690287FF07C0809196018093970186E01C
:10235000809396010280F381E02D86E991E0099552
:10236000089586E0C7CF2191222339F29F5FC5CF20
:1023700090E080E00E94730690E080E00E945D069D
:10238000109215020E94631186E0ECE3F2E0DF0197
:102390001D928A95E9F7109236021092350210923A
:1023A00037020E9442070895609328027093290221
:1023B00080932A0290932B020E94B81108950F93E4
:1023C0001F9341E050E060E070E004C0440F551FEF
:1023D000661F771F8A95D2F7CB01BA016095709579
:1023E00080959095009128021091290220912A024F
:1023F00030912B0260237123822393230E94D411F6
:102400001F910F9108959091F401809589238093F5
:10241000F401282F277091F4282F082E000C330B7D
:102420009217130659F090916A0292FF07C08595A2
:10243000859585950E94DF111092F40108950F9300
:102440001F9341E050E060E070E004C0440F551F6E
:10245000661F771F8A95D2F78091280290912902F2
:10246000A0912A02B0912B028A019B01082B192B03
:102470002A2B3B2BC901B8010E94D4111F910F9147
:102480000895609318027093190280931A02909332
:102490001B020E94B8110895882321F00E94820A2D
:1024A0000E9463110895882339F090911602982BA9
:1024B000909316020E9463110895882309F455C071
:1024C000823879F40E94890681FF4FC089E30E9417
:1024D000B40A0E94631189E30E94890A0E94631171
:1024E0000895833859F40E94890680FF3EC083E531
:1024F0000E94B40A0E94631183E5EECF843859F438
:102500000E94890682FF31C087E40E94B40A0E94BB
:10251000631187E4E1CF9CEF980F913AE8F290E2E3
:10252000980F983050F4877091E001C0990F8A9508
:10253000EAF7892F0E94820AD1CF9BE5980F93304A
:1025400028F490E080E00E947306089598E5980FC3
:10255000973128F490E080E00E945D0608958D3E5A
:1025600020F00E9469070E9442070895CF93C82F68
:102570008823C9F08238C9F40E94890681FD13C0FE
:1025800089E30E94B40A0E9463112FEF81EE94E068
:10259000215080409040E1F700C0000089E30E9494
:1025A000890A0E946311CF9108958338A1F40E9493
:1025B000890680FDF8CF83E50E94B40A0E9463116A
:1025C0002FEF81EE94E0215080409040E1F700C071
:1025D000000083E5E4CF8438A1F40E94890682FDDF
:1025E000E2CF87E40E94B40A0E9463112FEF81EECC
:1025F00094E0215080409040E1F700C0000087E463
:10260000CECF8CEF8C0F813A88F5809127018823FB
:1026100001F18091690287FF1CC0EC2FE695E695D9
:10262000E695F0E0EA56FE4F828190E04C2F47702D
:1026300021E030E002C0220F331F4A95E2F78223E7
:102640009323892B79F08C2F0E94890A0E946311B1
:1026500009C0E8E9F1E08191C817A9F321E0EE395A
:10266000F207C9F78C2F0E94B40A9BCF80E28C0F2F
:10267000883068F4C77021E030E001C0220FCA95AD
:10268000EAF780911602822B809316028ACFEBE53F
:10269000EC0FE33040F4F0E0E85DFE4F808190E025
:1026A0000E94730680CFE8E5EC0FE73150F4F0E0CC
:1026B000EE0FFF1FE55DFE4F808191810E945D0658
:1026C00072CFCD3E08F46FCF8C2F0E9424080E9459
:1026D000420769CF0F931F93CF93DF93C62FD42F59
:1026E000022FFC0182818823A9F060938C030E9451
:1026F000510690938B0380938A03C77081E001C0D9
:10270000880FCA95EAF70E945312DF91CF911F916B
:102710000F91089580918C03681335C080918A03CE
:1027200090918B030E944206883C910560F510E26F
:102730001D0FCD17B9F080E28C0F883040F4C770C0
:1027400081E001C0880FCA95EAF70E944C12183048
:1027500048F481E09D2F977001C0880F9A95EAF7A1
:102760000E945312802F0E94B612802F0E945D1289
:10277000183058F6D77081E001C0880FDA95EAF773
:102780000E944C12C2CFC77081E001C0880FCA9569
:10279000EAF7F6CFCF9384E090E00E947226C82F2C
:1027A00082E290E00E947226982F8C2FCF9108959C
:1027B0001092160280912701E8E9F1E0882361F088
:1027C0008091690287FF08C08EE1DF011D928A9522
:1027D000E9F70E94B811089586E0F7CFAAE2B0E0C9
:1027E000E4EFF3E10C94302685E992E02091F100CA
:1027F000FC012193CF01F2E08D399F07B9F7809159
:102800009602833009F470C0B8F4813009F447C0EF
:10281000823009F4B1C08091E80083FF88C28091C2
:102820009502909196029A3008F081C2E92FF0E06B
:10283000E454F94D0C94EA258A3009F48CC08B30AD
:1028400009F46FC0893039F780919502813219F708
:102850008091990290919A020297E8F68091E8009F
:10286000877F8093E8008091E80082FF38C09091D4
:10287000F3008091F200029731F48091F1008130F1
:1028800011F0863021F48091F100809370028091E4
:10289000E8008B778093E8000E942704BCCF8091EA
:1028A0009502813A09F0B7CF8091E800877F809345
:1028B000E8008091990290919A02892B61F460E27C
:1028C00081E792E070E00E94D3048091E8008B776A
:1028D0008093E800A0CF60E090E080E0F3CF8091AB
:1028E00093028111C0CF97CF80919502813A09F070
:1028F00092CF8091990290919A02892B09F08BCF07
:102900008091E800877F8093E8008091E80080FF55
:10291000FCCF809127018093F1008091E8008E77B1
:10292000B9CF80919502813209F075CF80919902DB
:1029300090919A02892B09F06ECF8091E800877FF1
:102940008093E8000E9427048091970280932701DA
:102950000E94D81360CF80919502813209F05BCF3D
:102960008091E800877F8093E8000E94270480918F
:10297000980280936F024FCF80919502813A09F0BF
:102980004ACF8091E800877F8093E8008091E8003B
:1029900080FFFCCF80916F02BECF803899F08238E3
:1029A00009F0C5C1809199028F70873008F0BFC1CE
:1029B0008093E9008091EB0085FB882780F91092D5
:1029C000E90006C08091910290919202911182607B
:1029D0009091E800977F9093E8008093F100109227
:1029E000F1008091E8008E779EC1882309F48CC1A4
:1029F000823009F09CC18091970281118FC1809132
:102A000099028F702FEF280F263008F090C1809325
:102A1000E9002091EB0020FF81C1933031F48091D7
:102A2000EB0080628093EB0079C19091EB009061A4
:102A30009093EB0021E030E001C0220F8A95EAF785
:102A40002093EA001092EA008091EB008860EACFC0
:102A500081116DC1109197021F778091E3008078FA
:102A6000812B8093E3008091E800877F8093E800CA
:102A70000E9427048091E80080FFFCCF8091E30052
:102A800080688093E30082E0111183E080939302D9
:102A90004EC18058823008F04AC1809197029091CF
:102AA00098028C3D23E09207A1F583E08A838AE2B5
:102AB00089834FB7F894DE01139620E03EE051E29F
:102AC000E32FF0E050935700E49120FF03C0E2951C
:102AD000EF703F5FEF708E2F90E0EA30C0F0C79646
:102AE0008D939D932F5F243159F74FBF8091E8005C
:102AF000877F8093E8006AE270E0CE0101960E9431
:102B0000D3048091E8008B778093E80010C1C096D1
:102B1000E7CF4091990250919A02292F3327233011
:102B2000310509F444C078F52130310509F46FC04E
:102B30008FE990E0E9E3F4E02230310509F0F7C0D5
:102B40002091E800277F2093E80020919B0230919C
:102B50009C028217930708F49C0140E0211531057F
:102B600009F064C0411162C08091E80082FDC9CFC4
:102B700080919302882329F2853019F28091E80030
:102B800083FFF2CFBECF21323105A9F122323105C8
:102B900009F0CDC04115510509F443C0413051053C
:102BA00009F0C5C086EB90E0E3E4F3E0C9CF9927D4
:102BB00081309105C1F0009759F0029709F0B7C034
:102BC000EAEEF4E0E4918E2F90E0EAEEF4E007C044
:102BD000ECE1F5E0E4918E2F90E0ECE1F5E0009778
:102BE00009F4A5C0ADCFE6E0F5E0E4918E2F90E0CA
:102BF000E6E0F5E0F4CF4115510571F041305105A3
:102C000009F095C089E090E0E4E6F4E099CF82E134
:102C100090E0E8EDF4E094CF89E090E0EBE4F4E0BC
:102C20008FCF80E490E0E9EFF3E08ACF80919302C8
:102C3000882309F466CF853009F463CF8091E800DA
:102C400083FD5FCF8091E80082FD8ECF8091E80008
:102C500080FF84CF9091F3008091F200211531051F
:102C600019F08830910550F041E0089709F040E0F4
:102C70008091E8008E778093E80070CF4491409374
:102C8000F1003196215031090196E8CF803809F0E2
:102C90004EC08091E800877F8093E8008091940285
:102CA0008093F1009ECE811142C0109197021230A4
:102CB000F0F58091E800877F8093E80010939402FC
:102CC0000E942704112311F084E005C08091E300E5
:102CD00087FDFACF81E08093930242E061EC81E0CE
:102CE0000E94460442E261EC82E00E94460442E314
:102CF00061E883E00E94460442E361E884E00E94C8
:102D000046048091930213C080919702813079F438
:102D100081E0933009F080E0809392021092E90004
:102D20008091E800877F8093E8000E9427048091CB
:102D3000E80083FF0AC08091E800877F8093E80065
:102D40008091EB0080628093EB00AA96E3E00C9404
:102D50004C260E94D8132FEF84E39CE02150804042
:102D60009040E1F700C0000088E19CE00FB6F894C5
:102D7000A895809360000FBE90936000FFCF68EE2F
:102D80007EEF90E080E00E94A42660E082E090E088
:102D90000E94862660E083E090E00E9486261092E2
:102DA00018021092190210921A0210921B0260E08F
:102DB00084E090E00E94862664E082E290E00E9437
:102DC000862660E085E090E00E94862660E086E04E
:102DD00090E00E9486266FEF87E090E00E948626B2
:102DE00040E050E0BA0188E090E00E94982660E060
:102DF0008DE090E00E94862640E050E0BA0188E134
:102E000090E00E94982660E087E190E00E9486268C
:102E100040E050E0BA018CE190E00E94982670E01A
:102E200060E080E290E00E94A42640E050E0BA0119
:102E300088E190E00E94982640E050E0BA018FE0DF
:102E400090E00E94982640E050E0BA0183E190E0D3
:102E50000E9498260895CF93C0916A02C2FB9927D9
:102E600090F9981791F080FBC2F9C0936A026091C3
:102E7000690284E090E00E9486266C2F82E290E056
:102E80000E94862682E00E940312CF910895A5E059
:102E9000B0E0EDE4F7E10C9423267C01FC01838192
:102EA0009481892B31F08081918189238F3F09F0B2
:102EB0001BC52596E0E10C943F260E94F20A182FCC
:102EC000682F89819A810E94620B69817A81812FA2
:102ED0000E94DA088C01803BFDE59F0709F4A4C03D
:102EE000B0F58E3A9D4509F441C00F3A8DE51807BB
:102EF00009F493C0043FFCE51F0709F4B5C008F0CE
:102F0000A1C0093D3CE5130709F4AAC00A3D8CE5C0
:102F1000180709F4B5C0083D9CE5190771F526E2CC
:102F200041EE61EEC7010E946A138091F40187703F
:102F300009F4BFCFF7018281882309F4BACF8091C9
:102F40006A0282FFB6CF82E00E940312B2CF013B39
:102F50009DE5190709F46FC0023BEDE51E0751F628
:102F6000F7018281882349F082E405C0F70182815C
:102F7000882319F08EE380930001F7018281882372
:102F800009F4C3C410928C030430FDE51F0708F058
:102F90007AC00B3F2CE5120730F4C80182509C45E3
:102FA000449708F07AC00E94CA1390936A028093F3
:102FB000690201319CE5190709F448C108F0C4C051
:102FC0000930FCE51F0709F42BC108F08FC005305C
:102FD0003CE5130709F41CC108F074C003309CE5FC
:102FE000190709F40BC108F00FC1809169028160D3
:102FF0000230FCE51F0709F404C1609169021091D9
:103000006A0284E090E00E948626612F82E290E0CE
:103010000E9486260E94D81388CFF70182818823D8
:1030200009F4ABCF8FE3A7CFF7018281882309F49E
:10303000A4CF80E4A0CFF7018281882309F49DCF3B
:1030400081E499CF063FECE51E07B1F088F0073F19
:103050002CE5120709F091CF27E245EE66EE62CF2C
:1030600027E245EE65EE5ECF26E241EE60EE5ACFF6
:1030700027E245EE64EE56CF26E241EE62EE52CFF5
:1030800028E241E0EFCF02363DE5130709F48BCF8C
:10309000063A8DE5180709F486CF06312CE51207AC
:1030A00009F0DDC4809116028A7A91E009F490E07B
:1030B0009093B6018111F4C089E20E94B40A0E9483
:1030C000631133CF80916902806207302CE51207CB
:1030D00009F497C080916902806108303CE51307CC
:1030E00008F48FC08091690280648BC00D308CE53C
:1030F000180709F49FC0A0F4809169028E7F0B30FD
:10310000ECE51E0709F47DC0809169028C600C30EB
:10311000FCE51F0708F475C0809169028D7F71C0BE
:10312000809169028F7E0F302CE5120709F469C087
:1031300080916902877F00313CE5130708F461C084
:10314000809169028F7D5DC00E3F8CE5180709F400
:1031500079C058F50531ECE51E0709F481C098F4F3
:1031600080916902837F03312CE5120709F449C07D
:1031700008F470C00E94D81390916902892F97FBC0
:1031800087F980583EC00C3F8CE5180709F444C00D
:1031900008F054C080916A0281600B3FECE51E0785
:1031A00009F02BCF80936A0228CF0230FDE51F077C
:1031B00009F462C090F480916A028C7F01153DE5AC
:1031C000130781F398F180916A02982F909591707E
:1031D0008E7F892B90FB81F9E5CF02369DE519079B
:1031E00009F450C0063AEDE51E0709F452C0033059
:1031F000FDE51F0709F001CF60E03FC08091690243
:10320000826080936902F9CE809169028460F9CF6F
:10321000809169028860F5CF80916A028260C2CF96
:103220000E94D813809169028068EBCF80916A0276
:103230008360B8CF809169028B7FE3CF80916A026F
:103240008E7FB0CF80916A028D7FACCF8091690272
:103250008F7BD7CF0E94D813809169028F77D1CF0F
:103260008091690282FB992790F921E0922790FBD7
:1032700082F990FB83F9C5CF61E08EE090E00E9477
:103280008626BBCE90916902892F8F7E94FF806144
:10329000B8CF90916902892F8E7F90FF8160B1CF66
:1032A00085E30BCF8091B601811104C089E20E94B1
:1032B000890A05CF85E3FBCF81608093590261E0E5
:1032C00086950E94DA0F31CE45E150E16FE170E161
:1032D0000E9496062ACE4FE150E165E170E1F8CFF9
:1032E0004CEA5FE062EA7FE0F3CF48E85FE065E93F
:1032F0007FE0EECF4EE65FE06BE77FE0E9CF4BE7A4
:103300005FE06EE67FE0E4CF48EC5FE066EB7FE0F5
:10331000DFCF61E081E0D5CF65E082E00E942A1036
:1033200004CE68E086E0FACF64E18FE0F7CF67E192
:1033300085E1F4CF62E289E1F1CF61E083E2C1CFC0
:103340000E94D813EFEFF4E32CE0E150F04020406E
:10335000E1F700C000000E94630C80916A0282FBCA
:10336000882780F991E089270E942B17F701828135
:1033700000811181882309F445C0C8010E94F20A26
:10338000D82E682FC8010E94620BB8018D2D0E94B3
:10339000DA080E94F4088C01882EF701D28095800B
:1033A00092943FE093228091F4018770C1F0BD2C8C
:1033B000DD20B1F0812F807F803421F080E2800F0A
:1033C000883068F080916A0282FF09C082E00E9422
:1033D00003128091F4018770BB24B3948111B12C46
:1033E000A12EA2942FE0A222FBE0FA1508F476C0E9
:1033F000EA2DF0E0EA53F94D0C94EA2581E0B4CFD0
:1034000080E0B2CFC8010E943B0BD82EBECF212F47
:103410002F70C22E107F19F0C29490EFC922DD20C8
:10342000B9F0CC2069F080E2800F883010F0811074
:1034300009C080911602C82AC09216020E94631128
:10344000802F4AC080911502C82AC0921502F6CF7B
:10345000802F0E945D12CC2009F440C0005E08302D
:1034600010F0811004C08C2D0E94820A06C0C09406
:1034700080911502C822C09215020E9463112EC0CD
:10348000312F3F70C32E107F103219F0C29480EF9D
:10349000C822882089F081E0881609F477C0DD20F1
:1034A00009F481C0992009F477C0F701858180FF74
:1034B000C7CF8F70858370C020916A0222FD43C000
:1034C000DD20D9F1CC2039F080911602C82AC092B3
:1034D00016020E94631180E00E94B612EA2DE850A5
:1034E000FF0B349710F40E948906BB20A9F080914D
:1034F000F40180FD11C0F7011282859585958595AF
:103500000E941F12C7010E9447178091F401859500
:10351000859585950E94DF1185E0F701DE01119602
:1035200001900D928A95E1F709811A81C8010E94E4
:103530003B0BB8010E94DA08BCCC80E00E945D120F
:10354000CC2061F290CFDD20A1F0909117028C2D5C
:10355000892B911003C00E945312C0CFE1E09E124C
:10356000FACF22FFBBCF981709F4B8CF8093170288
:10357000B5CF911006C00E947C0A8C2D0E944C127F
:10358000ADCFF1E09F1609F4A9CFF5CFDD2031F0E2
:1035900025E0291508F4A2CF8C2DDDCF34E03915B4
:1035A00008F49CCFEACF992041F3F9E38F1295C13B
:1035B0002FEF37EE83E0215030408040E1F700C02C
:1035C00000008BC1812F86958695837061F08130D4
:1035D00009F084CFC8019370D11002C090E080E060
:1035E0000E945D067BCFC8019370D11002C090E0AD
:1035F00080E00E94730672CF802FDD2029F00E94A8
:1036000024080E9442076ACF0E946907FACF812FDF
:10361000837009F066C0D11061CF802F82958695A6
:103620008770880F880F602F6F70462E512C712C79
:10363000612C082E04C0440C551C661C771C0A948F
:10364000D2F740E050E0BA0104FF0FC04FE050E075
:1036500060E070E004C0440F551F661F771F8A9515
:10366000D2F74095509560957095812F86958695F7
:103670008370823019F1D8F4009118021091190268
:1036800020911A0230911B02813069F0442955299A
:1036900066297729CB01BA01602371238223932302
:1036A0000E9441121BCF402A512A622A732ACB0161
:1036B000BA016429752986299729F2CF4429552909
:1036C00066297729009118021091190220911A0297
:1036D00030911B02CB01BA01602771278227932703
:1036E000DFCF8695DD2011F0812F8170882309F4CA
:1036F000F5CE802F829586958770880F880F602F72
:103700006F70462E512C712C612C082E04C0440C75
:10371000551C661C771C0A94D2F740E050E0BA01B1
:1037200004FF0FC04FE050E060E070E004C0440FC1
:10373000551F661F771F8A95D2F740955095609563
:103740007095812F869586958370823019F1D8F413
:10375000009128021091290220912A0230912B0217
:10376000813069F04429552966297729CB01BA01AE
:1037700060237123822393230E94D411AFCE402A69
:10378000512A622A732ACB01BA0164297529862934
:103790009729F2CF442955296629772900912802D3
:1037A0001091290220912A0230912B02CB01BA01FB
:1037B0006027712782279327DFCF1F70DD2029F034
:1037C000812F0E941F12802FC6CE802F0E944C1284
:1037D000812F0E94DF1182CE802F92EF891609F48B
:1037E0003FC0981570F0E0EF8E16D1F0F1EF8F1614
:1037F00091F0DD2009F46CC0911022CE812F8F71E1
:1038000033C023EF821699F134EF8312F2CF809107
:103810006A0282FD3FC0812F8F71DD20D1F224C06A
:10382000DD20C9F084E0891508F458CE1F7161E0ED
:1038300070E080E090E004C0660F771F881F991F3A
:103840001A95D2F7009128021091290220912A029C
:1038500030912B02ADCF95E0991508F43FCEE6CF1D
:10386000812F8F71D110B5CF0E941F1237CE60E02B
:1038700070E0CB01DD2009F47FCF1F7161E070E0C3
:1038800080E090E004C0660F771F881F991F1A958B
:10389000D2F772CFDD2089F01F71812F0E941F1295
:1038A00080916A0282FF07C0E8E01E9FC0011124D8
:1038B00083608093F401812FD7CF81E00E940312AF
:1038C000F1E0F91508F00ACE82E00E94031206CE5C
:1038D000992039F0893309F46BCE802F0E945D1254
:1038E000FDCD812F8F7175CF85E0DE01119601909E
:1038F0000D928A95E1F7F701228189819A81211140
:10390000DCCA0E943B0B182FE0CA0631FCE51F07FA
:1039100009F4C8CC8091160282720D3C2CE5120786
:1039200009F4F2CC08F063C0073C9CE5190709F4E0
:10393000D7CCC8F5043CFCE51F0709F4C5CC20F53D
:10394000033C3CE5130709F011CD8091590280FF3B
:10395000B3CC8E7F809359026091590270915A02C4
:1039600080915B0290915C020E94E30E10924902EA
:103970003FEF80E792E0315080409040E1F700C097
:1039800000000E94870CD1CA053C9CE5190709F488
:10399000A2CC42EA5FE06CEA7FE0063CECE51E0761
:1039A00009F496CCE3CC0A3CFCE51F0709F4A2CC51
:1039B00078F4083C3CE5130709F497CC45E95FE04F
:1039C00068E87FE0093C9CE5190709F481CCCECC7E
:1039D0000B3CECE51E0709F492CC46EB5FE068EC8B
:1039E0007FE00C3CFCE51F0709F472CCBFCC023D24
:1039F0002CE5120709F498CCA0F40F3C8CE51807CD
:103A000009F48ACC08F485CC003DECE51E0709F4E6
:103A100088CC6EE089E0013DFCE51F0709F47ECC0F
:103A2000A5CC053D2CE5120709F484CC68F4033DD0
:103A30008CE5180709F47BCC61E088E1043D9CE546
:103A4000190709F43ECC92CC063DECE51E0709F4BB
:103A500074CC0E35FDE51F0709F467CA87CC0B351A
:103A60002DE5120709F4CACC68F401158CE5180796
:103A700009F466CC0F3D1C4509F078CC0E94BF16B6
:103A80000E94A9160D35EDE51E0709F466CC08F471
:103A9000B7CC083A1D45A1F369CC1F93CF93DF93B0
:103AA0008091C101807F09F049C08091BE018823C7
:103AB00009F444C08091F301D091C2016091BC012E
:103AC0007091BD01A091BF01B091C001C62FC72365
:103AD00016E0D81799F190E0109711F0CF3F19F444
:103AE00001968770F6CF189F9001199F300D112411
:103AF000F901ED53FE4F41814713F2CF4081461348
:103B0000EFCF42814111ECCF438154814A1B5B0BC3
:103B1000483C510528F78091C1018F7080618093E6
:103B2000C101F901E853FE4F80818F70806180836D
:103B30008CEB91E00E9447170E94E80ADF91CF9139
:103B40001F910895A1E1B0E0E8EAFDE10C94292677
:103B50008C0185E0F801DE011D9601900D928A9599
:103B6000E1F7F801E2808CEBA82E81E0B82E60919D
:103B7000BF017091C0016115710509F426C19091D2
:103B8000BC014091BD01892F84238F3F09F41DC1E1
:103B900020813181C380D480F090BE01F601E61B04
:103BA000F70BFF2009F4DCC08091C101582F507F32
:103BB000E83CF10508F09FC051116BC0FE2C431387
:103BC00014C0921312C0E11010C08F7080618093F6
:103BD000C101C5010E9447178091C101F801858389
:103BE0008F2D6196EAE00C944526C114D10429F08A
:103BF000822F83238F3F09F003C180E0F82FF170FB
:103C0000DF2E80FF3CC08091F3014091C20156E05D
:103C1000841315C02D873E878D859E850E942E0BAF
:103C2000292F22952F702230F0F0243018F59F7044
:103C3000F1F0F8019581907FD1F4D12C1EC090E075
:103C4000589FF001599FF00D1124ED53FE4F6181F3
:103C5000361306C06081261303C06281E6120FC0CE
:103C600001968770D5CF9F7011F0882331F3805E65
:103C7000883018F3C8010E944717FD2CB1CFEE2001
:103C800009F4AECF8091C10181608093C101F12C14
:103C9000A7CF431306C0921304C0F801EE2009F425
:103CA00079C0C8010E948D0B882309F1EE20F9F03C
:103CB0008091C101803270F02091BC013091BD0132
:103CC00038872F831986DB86CA868C87CE010796B4
:103CD0000E94471786E0F801ACEBB1E001900D922D
:103CE0008A95E1F70E944D1DFF24F39479CFC80116
:103CF0000E944717F9CF51110AC08CEB91E00E9446
:103D0000471786E0F50111928A95E9F7C0CF431372
:103D10000FC092130DC0E1100BC0F8018583C801DC
:103D20000E94471786E0F50111928A95E9F758CF6E
:103D3000C8010E948D0B8823D1F2EE20C1F2809140
:103D4000C101803238F22091BC013091BD013A832B
:103D500029831B82DD82CC828E83CE010196B8CF6F
:103D6000E83CF105F8F6FE2CEE2009F243131FC0E3
:103D700092131DC08091C10180FD10C0982F907FCB
:103D800069F0F8018583903F31F0982F907F905F24
:103D90008F70892B8583C8010E94471786E0F80140
:103DA000ACEBB1E001900D928A95E1F719CFC80113
:103DB0000E948D0B81118ECF8091C1018160809313
:103DC000C101C8010E9447170BCFEE2009F48FCF25
:103DD000C8010E948D0BF82E882309F488CF86E055
:103DE000F801ACEBB1E001900D928A95E1F780917A
:103DF000BC019091BD010E942E0B0E944D1DF0CE82
:103E000081E08E25FBCEA7E1B0E0E9E0FFE10C9474
:103E100030264B8B5C8B6D8B7E8B8F8B6111109260
:103E200015021A8A198A85E0FE017396DE011D9635
:103E300001900D928A95E1F786E0FE013D96DE0144
:103E4000179601900D928A95E1F7CE0107960E9490
:103E5000A21D882359F016E08091F3019091C201D0
:103E6000891343C06796E3E00C944C2686E0FE017C
:103E70003796DE01119601900D928A95E1F78A85B9
:103E80009B85892B41F38F81988589238F3F19F377
:103E90002091C20130E0C9010196877099274091B5
:103EA000F3014817190671F40E94D8131092C20149
:103EB0001092F30186E0ECEBF1E0DF011D928A95B0
:103EC000E9F7C9CF96E0929FD001939FB00D1124DE
:103ED000AD53BE4FFE01319601900D929A95E1F7D8
:103EE0008093C2010E94E80AB6CF819FC0011124CD
:103EF0008D539E4F0E94A21D882309F4B3CF809159
:103F0000F30190E00196877099278093F301A4CF85
:103F10001F920F920FB60F9211242F933F934F933E
:103F20005F936F937F938F939F93AF93BF93CF9341
:103F3000DF93EF93FF93D091E900DF708091EC0065
:103F4000C82FC17080FDC0E81092E9008091F00098
:103F5000877F8093F00078940E94EE131092E9001E
:103F60008091F00088608093F000CD2BCF70C093DB
:103F7000E900FF91EF91DF91CF91BF91AF919F91B8
:103F80008F917F916F915F914F913F912F910F9002
:103F90000FBE0F901F9018951F920F920FB60F92A1
:103FA00011242F933F934F935F936F937F938F933E
:103FB0009F93AF93BF93EF93FF938091E10082FFB4
:103FC00009C08091E20082FF05C08091E1008B7FF3
:103FD0008093E1008091DA0080FF24C08091D800B6
:103FE00080FF20C08091DA008E7F8093DA0080917C
:103FF000D90080FF9DC080E189BD82E189BD09B4FF
:1040000000FEFDCF81E08093930280916E028111CA
:1040100009C00E94AD030E9478048091E200846090
:104020008093E2008091E10080FF17C08091E20060
:1040300080FF13C08091E2008E7F8093E200809128
:10404000E20080618093E2008091D80080628093DA
:10405000D80019BC85E0809393028091E10084FF31
:104060002BC08091E20084FF27C080E189BD82E1FE
:1040700089BD89B5982F917080FFFBCF8091D800C2
:104080008F7D8093D8008091E1008F7E8093E10046
:104090008091E2008F7E8093E2008091E200816057
:1040A0008093E20080919402882309F447C084E061
:1040B00080939302809193028091E10083FF27C057
:1040C0008091E20083FF23C08091E100877F80938D
:1040D000E10082E080939302109294028091E100CB
:1040E0008E7F8093E1008091E2008E7F8093E200DA
:1040F0008091E20080618093E20042E060E080E035
:104100000E9446048091F00088608093F000FF9147
:10411000EF91BF91AF919F918F917F916F915F913F
:104120004F913F912F910F900FBE0F901F901895B8
:1041300019BC1092930210926E0274CF8091E3002A
:1041400087FD93E090939302B5CF78941F921FB6AA
:104150001F9211248F939F93AF93BF938091650219
:1041600090916602A0916702B09168020196A11D2C
:10417000B11D8093650290936602A0936702B0938D
:104180006802BF91AF919F918F911F901FBE1F90AA
:1041900018951F921FB61F9211248F939F93AF9370
:1041A000BF9380916402811113C080916502909148
:1041B0006602A0916702B09168024196A11DB11DEF
:1041C0008093650290936602A0936702B0936802A1
:1041D000BF91AF919F918F911F901FBE1F90189517
:1041E000CDB7DEB760970FB6F894DEBF0FBECDBF78
:1041F00085B7806885BF85B7806885BF1092C20289
:104200001092C4021092C30280EC8093870385EC65
:1042100092E0909389038093880310928603109212
:1042200085031092A2021092A1021092A402109291
:10423000A3021092A6021092A5021092A802109258
:10424000A7021092AA021092A9021092AC02109238
:10425000AB021092AE021092AD021092B002109218
:10426000AF021092B2021092B1021092B4021092F8
:10427000B3021092B6021092B5021092B8021092D8
:10428000B7021092BC021092BB0283EF95E09093AC
:104290009E0280939D028AE595E09093BE028093F2
:1042A000BD0286E395E09093BA028093B90285E35C
:1042B00095E09093A00280939F0284B7877F84BF8C
:1042C0000FB6F894A8958091600088618093600093
:1042D000109260000FBE80E890E00FB6F8948093D3
:1042E0006100909361000FBE8EE798E09093950176
:1042F000809394010E94AD030E9478048091E200B3
:1043000084608093E2007894809193028823A1F0E6
:104310001091E9001F709091EC00892F817090FD41
:1043200080E8182B1092E9008091E80083FD0E943C
:10433000EE131F701093E90082E084BD93E095BDF9
:104340009AEF97BD80936E0080EF0E94800881EF06
:104350000E94800880E30E94800881E30E94800818
:1043600082E30E94800883E30E948008109230025A
:1043700010922F02109227021092260290E080E005
:104380000E948026883E9E4F11F00E94BF1682E058
:1043900090E00E947226809331020E94CA1390938B
:1043A0006A02809369020E944A108FE39CE9019798
:1043B000F1F700C000000E944A1080912F0280FF98
:1043C00008C06FEF7FEF90E080E00E94A4260E947B
:1043D000630C83E090E00E947226682F70E090E00A
:1043E00080E00E94411280912C02811136C090E041
:1043F00080E00E948026883E9E4F21F00E94BF16DA
:104400000E943A1088E090E00E947A266093590258
:1044100070935A0280935B0290935C026E7F71F4FA
:104420000E943A1088E090E00E947A266093590238
:1044300070935A0280935B0290935C020E949D06E7
:10444000109249028091590280FF04C060E0869575
:104450000E94DA0F81E080932C0281E091E090933A
:1044600061028093600288E1882E912C90E4E92E0D
:10447000FF24F394552453948091930210E102E1B8
:10448000853009F4FFC10E944A10882359F08FB784
:10449000F8944091650250916602609167027091B4
:1044A00068028FBF90912F0280913202891761F0CC
:1044B000282F292780E011E0312F322309F0FDC198
:1044C0008F5F110F8430C1F79091300280913302D9
:1044D000891709F4FBC1282F292780E011E0322F2A
:1044E000312309F4EEC121E0CC24C394D12C8F8375
:1044F0002887912381E009F480E089870E94510692
:104500008160782F9B878A874F81588569858B8545
:104510000E94031FF601EE5CFD4F80811827108377
:10452000809149028823D1F180914802E09159029B
:10453000E695E81BE0934402823009F0D8C1F0E030
:10454000E65CFE4FE4910E2F10E0B9EBCB2EBEE0FF
:10455000DB2E80914502882361F0109245020E9473
:1045600051069093430280934202109247021092A8
:1045700046020E945106E0914202F09143028E1BD6
:104580009F0B8F3F9F4750F4E00FF11FF0934302C2
:10459000E093420282E492E0F601099586E0ECE3C2
:1045A000F2E0DE01119601900D928A95E1F71092EA
:1045B0003E0210923F0210924002109241021B8173
:1045C0000C81812F802B09F448C080913A02909190
:1045D0003B020E9442069C0190913602992309F405
:1045E000AAC225313105C8F19F3F19F09F5F909312
:1045F0003602112359F00E9404089FEF11160CF4A3
:1046000091E0899F802D112480933E02002359F070
:104610000E9404089FEF10160CF491E0899F802DF2
:10462000112480933F0230913E023323B1F0209158
:104630003F02222391F045EB3403C001112499235A
:1046400009F4AFC190933E0245EB2403900111247D
:10465000332309F4A9C130933F021D810E81812FBC
:10466000802B09F448C080913802909139020E9451
:1046700042069C0190913502992309F457C22135D5
:104680003105C8F19F3F19F09F5F909335021123C8
:1046900059F00E94E2079FEF11160CF491E0899FF8
:1046A000802D112480934002002359F00E94E207DC
:1046B0009FEF10160CF491E0899F802D11248093B8
:1046C0004102309140023323B1F020914102222374
:1046D00091F045EB3403C0011124992309F467C11B
:1046E0009093400245EB240390011124332309F4F5
:1046F00061C13093410246E050E0BE016F5F7F4FE1
:104700008CE392E00E946526892B11F00E944207FB
:1047100086E0FE013196ACE3B2E001900D928A95FD
:10472000E1F7E091BD02F091BE02309719F08DE9FA
:1047300092E009959FB7F8940091860380918503D4
:10474000081708F43AC1081B9FBFD12CC12C10E0F8
:1047500083E0682E712CAA24A394B12C24E0322E7D
:10476000C016D10608F42DC10E948906909134022A
:1047700089138093340280919302843009F07CCEB7
:1047800080911C018F708093E9009091E80090FF68
:1047900073CE90919302943009F06ECE8093E9002D
:1047A0009091F3008091F200892B09F465CE8091FD
:1047B000E8008E778093E8000E94CC035DCE809164
:1047C0009302843009F43DC01092490280912E0278
:1047D000811116C050922E0280915902982F91702B
:1047E00090932D028E7F80935902FFEF20E742E0E5
:1047F000F15020404040E1F700C000000E94870CCB
:10480000109264020FB6F894A895809260000FBED3
:10481000E092600083B7817F846083BF83B781604B
:1048200083BF7894889583B78E7F83BF0FB6F89443
:10483000A89580916000886180936000109260006C
:104840000FBE809192028823E9F00E944A10809165
:104850002F0290913002892BA9F019BD09BD09B42E
:1048600000FEFDCF8091D8008F7D8093D80080918D
:10487000E00082608093E0008091E00081FDFCCF49
:104880000E94D81380919302853009F498CF0E943A
:10489000D8130E94890610922E0280912D0288233F
:1048A00049F08091590281608093590260E08695B9
:1048B0000E94DA0F0E94CD0EE6CD20E0D12CC12C53
:1048C00016CE8F5F110F843009F009CE8FEF8C87E1
:1048D0008D871E860E9451068160782F988B8F8766
:1048E0004C855D856E8588890E94031F19CE8630B0
:1048F00059F4F0E0E95CFE4FE4910E2F10E0A9EAD4
:10490000CA2EAEE0DA2E25CE893061F4E695F0E0CD
:10491000EC5CFE4FE4910E2F10E0FDE1CF2EFEE0A7
:10492000DF2E17CE8F3061F4E695F0E0EF5CFE4F9E
:10493000E4910E2F10E0EFEBCE2EEDE0DE2E09CE4F
:10494000853159F4F0E0E25DFE4FE4910E2F10E066
:1049500071E7C72E7DE0D72EFCCD08E210E043EFD3
:10496000C42E4CE0D42E883109F4F3CD833249F4BF
:10497000ECE2F1E00591149168E5C62E6EE0D62ECA
:10498000E8CD04EF11E05CEBC52E5CE0D52E84325F
:1049900009F4DFCD00ED17E03CE9C32E36E0D32E5D
:1049A000D8CDF0923E0250CEF0923F0256CEF09219
:1049B000400298CEF09241029ECE20918703020FD2
:1049C000C2CE8091850390E06091870370E00E94E1
:1049D000B4252091880330918903280F391FF901EC
:1049E00040802090C202F7EFF415E8F4F092C20282
:1049F00020E040E0642D81E090E00E94CA02209215
:104A0000C2022FB7F8948091850390E001966091DF
:104A1000870370E00E94B425809385032FBFFFEFCA
:104A2000CF1ADF0A9DCE47FE52C024E0221631F095
:104A30004092BF02B092C402A092C302842D0E9491
:104A40003705813069F08823D1F08230A9F08330B6
:104A500099F01092C2021092C4021092C302D1CFF8
:104A60008093C20220E040E0642D81E090E00E944B
:104A7000CA021092C202C5CF8093C202C2CF40EFD9
:104A80004416E1F087EF4812E4CF2091C302309141
:104A9000C402C901B3010E94A025FC01E356FD4FE9
:104AA00042A2C90101969093C4028093C30220914F
:104AB000C1024091C0026091BF02D9CF3092C202C0
:104AC0004092BF02B092C402A092C3029ACF2220A9
:104AD00009F497CF2091C3023091C402C901B301F8
:104AE0000E94A025AC01FC01E356FD4F42A2C90182
:104AF00001969093C4028093C3024130510589F01E
:104B00004230510509F07DCF2091C1024091C00291
:104B10006091BF020E94CA028091C202843091F665
:104B200070CFE2E020E02E126CCFF0CF2B303105B9
:104B300008F0AACDE0CD2B30310508F057CD8DCD52
:104B4000AA1BBB1B51E107C0AA1FBB1FA617B707B3
:104B500010F0A61BB70B881F991F5A95A9F78095CF
:104B60009095BC01CD01089597FB072E16F4009493
:104B700007D077FD09D00E94A02507FC05D03EF4A0
:104B8000909581959F4F0895709561957F4F0895F9
:104B9000A1E21A2EAA1BBB1BFD010DC0AA1FBB1F41
:104BA000EE1FFF1FA217B307E407F50720F0A21BB3
:104BB000B30BE40BF50B661F771F881F991F1A9420
:104BC00069F760957095809590959B01AC01BD014A
:104BD000CF010895EE0FFF1F0590F491E02D099489
:104BE0000E94F825332312F48A1B9B0B0C94092690
:104BF000A29FB001B39FC001A39F700D811D11241E
:104C0000911DB29F700D811D1124911D08950E9468
:104C1000F825B7FF0895821B930B08950E94F8258D
:104C2000A59F900DB49F900DA49F800D911D112400
:104C30000895B7FF0C940E260E940E26821B930B3C
:104C400008952F923F924F925F926F927F928F9230
:104C50009F92AF92BF92CF92DF92EF92FF920F930B
:104C60001F93CF93DF93CDB7DEB7CA1BDB0B0FB615
:104C7000F894DEBF0FBECDBF09942A8839884888D2
:104C80005F846E847D848C849B84AA84B984C88468
:104C9000DF80EE80FD800C811B81AA81B981CE0F5F
:104CA000D11D0FB6F894DEBF0FBECDBFED01089544
:104CB000FC014150504030F001900616D1F7319779
:104CC000CF010895882799270895FB01DC0104C0CE
:104CD0008D910190801921F441505040C8F7881BF4
:104CE000990B0895F999FECF92BD81BDF89A992745
:104CF00080B50895A6E1B0E044E050E00C94AC2605
:104D0000A8E1B0E042E050E00C94AC26262FF999DF
:104D1000FECF92BD81BDF89A019700B4021639F01A
:104D20001FBA20BD0FB6F894FA9AF99A0FBE0895EB
:104D30000396272F0E9487260E948626252F0E94F1
:104D40008726242F0C9487260196272F0E948726DA
:104D50000C948626DC01CB01FC01F999FECF06C03C
:104D6000F2BDE1BDF89A319600B40D924150504029
:104D7000B8F70895F894FFCFCD14F5149716F514ED
:104D8000971628154915971646165316071A071A27
:104D9000401A401AE21AFC1A6E1A6E1A071BDD1B23
:044DA000EC1BEC1B01
:104DA4003E3205230C020CFD0BF80B310501191AD8
:104DB4001B1C1D1E1F202122010201038340000031
:104DC4000104400000010001818283E200E900EA5D
:104DD40000B500B600B700CD008301CC008A019273
:104DE4000194012102230224022502260227022A19
:104DF40002B300B4006F007000F0F13031323300C0
:104E040001020202020606060909090909090F0F2F
:104E14000F0F0F0F15151518191919191919191933
:104E240019192324020302000001000101010101F8
:044E34000001010078
:00000001FF
