:100000000C9490020C94C8020C94C8020C94C80280
:100010000C94C8020C94C8020C94C8020C94C80238
:100020000C94C8020C94C8020C94901F0C944C1FA2
:100030000C948D200C94C8020C94C8020C94C80235
:100040000C94C8020C94C8020C94C8020C94C80208
:100050000C94C8020C9469200C94C8020C94C80239
:100060000C94C8020C94C8020C94C8020C94C802E8
:100070000C94C8020C94C8020C94C8020C94C802D8
:100080000C94C8020C94C8020C94C8020C94C802C8
:100090000C94C8020C94C8020C94C8020C94C802B8
:1000A0000C94C8020C94C8020C94C8026F00700033
:1000B000100307036E0007516D007300B15DB25D60
:1000C0001003A800B05D0751AF5DAE5D6A00AC00E3
:1000D000AE00AB00690007516800A80020042104AD
:1000E000220423041F0407511E0424044B004C0067
:1000F0004D004E004A000751490000007D007A0083
:10010000790000007C0007517B0000000000000027
:1001100000000000000007510000005C1250135066
:1001200014501550115007511050165000047F3FC5
:100130001F643214643214783C1E1E140A05000138
:100140000101010101010101020202020202020297
:100150000203030303030303030404040404040469
:10016000050505050506060606060707070707082D
:10017000080808090909090A0A0A0B0B0B0C0C0CE0
:100180000D0D0D0E0E0E0F0F0F101011111112127A
:1001900013131414151516161717181819191A1AF7
:1001A0001B1B1C1D1D1E1E1F202021222223242458
:1001B000252626272829292A2B2C2D2D2E2F303194
:1001C0003232333435363738393A3B3C3D3E3F40A6
:1001D0004142434445464748494A4C4D4E4F505191
:1001E0005354555658595A5B5D5E5F61626465664B
:1001F00068696B6C6D6F7072737577787A7B7D7ED2
:100200008082838587888A8C8E8F91939596989A21
:100210009C9EA0A2A3A5A7A9ABADAFB1B3B5B7BA39
:10022000BCBEC0C2C4C6C9CBCDCFD1D4D6D8DBDD0D
:10023000DFE2E4E7E9EBEEF0F3F5F8FAFDFFFFAA01
:100240007F55402223252628292A2C2D2F30323372
:100250003536383A3B3D3E4042434547494A4C4E8D
:100260005051535557595A5C5E6062646668696BB9
:100270006D6F71737577797B7D7F81838587898ABF
:100280008C8E90929496989A9C9E9FA1A3A5A7A8C5
:10029000AAACAEAFB1B3B4B6B8B9BBBCBEBFC1C2F5
:1002A000C3C5C6C7C9CACBCCCDCED0D1D2D2D3D488
:1002B000D5D6D7D7D8D9D9DADADBDBDBDCDCDCDCA6
:1002C000DCDDDDDDDDDCDCDCDCDCDBDBDBDADAD974
:1002D000D9D8D7D7D6D5D4D3D2D2D1D0CECDCCCBF6
:1002E000CAC9C7C6C5C3C2C1BFBEBCBBB9B8B6B414
:1002F000B3B1AFAEACAAA8A7A5A3A19F9E9C9A98A4
:10030000969492908E8C8A89878583817F7D7B7974
:10031000777573716F6D6B6968666462605E5C5A55
:100320005957555351504E4C4A4947454342403E18
:100330003D3B3A3836353332302F2D2C2A292826AA
:1003400025232205010902A10185020901A1000559
:100350000919012908150025019508750181020573
:1003600001093009311581257F950275088106093B
:10037000381581257F950175088106050C0A38021C
:100380001581257F950175088106C0C0050109808A
:10039000A101850319012AB700150126B7009501AF
:1003A00075108100C0050C0901A101850419012AFD
:1003B000A002150126A002950175108100C005015B
:1003C0000906A1018506050719E029E715002501A1
:1003D0009508750181020507190029EF150025010F
:1003E00095F075018102050819012905950575012A
:1003F0009102950175039101C005010906A101054E
:100400000719E029E7150025019508750181029576
:1004100001750881010507190029FF150026FF0055
:1004200095067508810005081901290595057501CE
:100430009102950175039101C009029F000401001A
:10044000A0FA0904000001030101000921110100C3
:100450000122400007058103080001090401000191
:100460000300000009211101000122B600070582E6
:1004700003200001080B0202010100000904020030
:100480000001010000092401000109000103090421
:1004900003000201030000072401000141000624BB
:1004A00002010100062402020200092403010301E3
:1004B00002010009240302040101010009050402EC
:1004C00040000500000525010101090583024000E7
:1004D00005000005250101031201000200000008CB
:1004E000A80300000100010200011A036E00610070
:1004F0006E006F002E00200073006C006900640025
:1005000065007200000014036B0065006500620066
:100510007700650072006B002E00000004030904E0
:1005200011241FBECFEFDAE0DEBFCDBF04B603FE5D
:1005300018C08091890390918A03A0918B03B09198
:100540008C038730904BA740B04B59F4109289032D
:1005500010928A0310928B0310928C03E0E0F8E370
:10056000099511E0A0E0B1E0ECE2FDE402C00590E5
:100570000D92A439B107D9F723E0A4E9B1E001C095
:100580001D92A938B207E1F70E94B4200C947E2690
:100590000C940000A3E0B0E0E0EDF2E00C94EF2555
:1005A0007C01162FD42EC22E8091BE02843071F5AC
:1005B000E091B302F091B4023097C1F1C701019705
:1005C00063E070E00E946425CB01880F991F860FBD
:1005D000971F19834A83CB824E2D481B9E012F5FA4
:1005E0003F4FBC0189E992E00995E091B702F09193
:1005F000B802309739F00C2D2D2D412FB70189E924
:1006000092E009952396E8E00C940B2682E0E81628
:10061000F10409F45AC083E0E816F104A9F081E07E
:10062000E816F10409F484C0F12CE12CE091B50244
:10063000F091B6023097C9F20C2D2D2D412FB70144
:1006400089E992E00995D1CF862F807F803A11F118
:1006500088F48038D1F0E0919D02F0919E028039BB
:1006600029F7309719F3123F49F12C2D4D2D612FA9
:100670006F7027C0803E99F0803FB1F0E0919B02FF
:10068000F0919C02803B91F6ECCFE0919F02F091BB
:10069000A002E7CFE091A102F091A202E2CFE091A7
:1006A000A302F091A402DDCF623F09F0BFCFE09139
:1006B000A502F091A602309709F4B8CF2C2D4D2D4C
:1006C00062EF89E992E0099590CF862F807F803D87
:1006D000B9F0803FD1F0E091A702F091A802803CF0
:1006E00009F0A4CF309709F4A1CF812F8D7F4D2D34
:1006F000612F6F70813FC9F089E992E0099575CF4C
:10070000E091A902F091AA02EDCFE091AB02F09145
:10071000AC02633F39F0613F09F088CFE091AD0250
:10072000F091AE02309709F481CF4D2D612FE4CFC7
:10073000E091AF02F091B002683F38F4663F09F0F3
:1007400075CFE091B102F091B202309709F46ECF0B
:10075000612F89E992E0099548CFE8EDF0E08081CA
:100760008E7F80831092E2001092DA001092E100F6
:10077000A0EEB0E08C9181608C9380818F77808334
:1007800019BCA7EDB0E08C918E7F8C9380818F7E19
:10079000808310926A0208952091E4003091E50070
:1007A00095E6A9012091EC00822F817020FF06C000
:1007B0008091E80080FF06C080E008952091E80065
:1007C00022FD1AC080918F02882389F0853089F03C
:1007D0008091EB0085FD0FC02091E4003091E50091
:1007E00042175307F9F29150E1F684E0089582E050
:1007F000089583E0089581E00895EF92FF920F93AA
:100800001F93CF937C018B010E94CC03C82F8111D1
:1008100017C08091E80085FD0BC08091E8008E77BD
:100820008093E8000E94CC03882399F3C82F08C066
:10083000F70181917F018093F1000150110949F77F
:100840008C2FCF911F910F91FF90EF900895809181
:10085000910287FF13C08091E80082FF06C080915B
:10086000E8008B778093E80004C080918F028111AB
:10087000F2CF089580918F028823D9F38091E80008
:1008800080FFF8CF8091E8008E77ECCF982F90937F
:10089000E900242F762F50E0891731F07091EC0099
:1008A0002091ED005091F00021FD07C09F5F97302F
:1008B00071F78093E90081E008953091EB003E7F6D
:1008C0003093EB003091ED003D7F3093ED0030919F
:1008D000EB0031603093EB007093EC002093ED005F
:1008E0005093F0002091EE0027FDE0CF80E00895C6
:1008F000B0E0A0E0EEE7F4E00C94EF25C8EDD0E026
:1009000088818F7E8883E7EDF0E08081816080833D
:1009100084E082BF81E080936A0288818E7F888331
:1009200002EE10E0F80110821092DA0081EEC82E7B
:10093000D12CF601108288818F7788838881806826
:10094000888388818F7D888319BC10928F021092D2
:10095000900210928E0210928D0290EEE92EF12CF0
:10096000F70180818B7F808388818160888342E06A
:1009700060E080E00E944604F60180818E7F8083E3
:10098000F801808181608083808188608083F701A5
:1009900080818E7F8083888180618883CDB7DEB738
:1009A000E8E00C940B26FC0180919702909198024C
:1009B00086179707A0F06115710529F49091E8005A
:1009C0009E779093E80090E06115710551F49111C4
:1009D00008C08091E80082FF34C080E00895BC0127
:1009E000F2CF80918F028823C1F18530C1F18091CF
:1009F000E80083FD30C08091E80082FDEACF80915D
:100A0000E80080FFE1CF8091F3002091F200382FC1
:100A10006115710519F02830310558F091E0283042
:100A2000310509F090E02091E8002E772093E8004E
:100A3000CBCF81918093F100615071092F5F3F4FBF
:100A4000E7CF80918F02882341F0853041F080917B
:100A5000E80083FFBECF81E0089582E0089583E03F
:100A60000895089580916C02089508950895982F2F
:100A7000907F903BE9F040F49039D1F0903AC1F08A
:100A80009038B1F080E00895903D19F020F4903C4A
:100A9000C9F782E00895903E59F0903F99F7815F41
:100AA0008F3080F7E82FF0E0EC57FE4F80810895FB
:100AB00083E00895A7E0B0E0E0E6F5E00C94EF25D0
:100AC0008C0108511F4F80918F02843009F087C03C
:100AD000809121018F708093E9008091E80082FF6E
:100AE0007EC08091E80085FF7AC00E94CC0381110E
:100AF00013C084E0E82EF12CCE0101966C018091A8
:100B0000E80085FD61C08091E8008B778093E80064
:100B10000E94CC03882399F38091E80085FD05C0ED
:100B20008091E8008B778093E800FA808F2D0E94F7
:100B30003705282FFD828B818E838C818F83211135
:100B40000BC08981843041F1873031F1863031F139
:100B500021E0853009F0B7CF30E0E5E0F0E0EC0FC0
:100B6000FD1FE30FF11DF0804FB7F894D8011196E7
:100B7000EC911197F0E0CF01019612966C9170E024
:100B80000E947825D8015C915817190649F44FBF87
:100B90003F5F321710F397CF23E0DECF22E0DCCFA8
:100BA00013968D919C911497E80FF91FF08211967E
:100BB0008C91119790E0019612966C9170E00E94D2
:100BC0007825F8018183E3CF8091F100D6018D93E0
:100BD0006D01B1E0EB1AF10809F091CF9DCF279696
:100BE000E8E00C940B26A4E0B0E0E9EFF5E00C940B
:100BF000F0257B01142FD22E4A832B830C83842F64
:100C00000E94370581113AC082E0E816F10489F1AB
:100C100083E0E816F10441F081E0E816F10429F5DB
:100C2000173F29F485E004C087E0073F09F084E01E
:100C3000898380918F028430C1F480911C018F7070
:100C40008093E90050E040E064E070E0CE0101965E
:100C50000E94FD03811109C08091E80085FD05C057
:100C60008091E8008E778093E8002496E7E00C946A
:100C70000C2687EFD812DBCF86E0DACF12951F70F3
:100C80001983D7CF9C014FB7F8948091610290915E
:100C90006202A0916302B09164024FBF821B930B6A
:100CA00008952FB7F8948091610290916202A0910B
:100CB0006302B09164022FBF089520915E023091CB
:100CC0005F022817390771F090935F0280935E02EC
:100CD000E0915C02F0915D02309721F00084F18593
:100CE000E02D0995089520915A0230915B02281752
:100CF000390771F090935B0280935A02E0915C0295
:100D0000F0915D02309721F00680F781E02D099582
:100D10000895E0915C02F0915D02309729F0019016
:100D2000F081E02D0995089580E00895FA01811180
:100D300001C0FB0109950895089580915502982FEF
:100D40009E7F29F4817082608093550208958A34D1
:100D5000E8F381708864F8CFAF92BF92DF92EF9290
:100D6000FF920F931F93CF93DF93082F162FE90164
:100D7000E42FF0E0E25CFE4F611110C0E4915E2FC1
:100D80004E2F4983E8835A83DF91CF911F910F91B2
:100D9000FF90EF90DF90BF90AF900895E62EF12C7A
:100DA0004491D42EE42FF0E026E0829FC00111246C
:100DB0002FEF30E0B9010E946425802F90E0880F6A
:100DC000991F55E5569FD001579FB00D11248A1BDE
:100DD0009B0B982F990F890F5901AE18BF08AE9E33
:100DE000D001AF9EB00DBE9EB00D11245B2F189F99
:100DF00080011124012F11275901A01AB10AAE9EBA
:100E00008001AF9E100DBE9E100D11245901A81A2D
:100E1000B108AE9CC001AF9C900DBE9C900D1124FA
:100E2000892F9927281B390B2E9FC0012F9F900DCA
:100E30003E9F900D1124E92F62307105A1F050F40E
:100E40006115710509F49DCF6130710581F0EB2FBB
:100E5000512F97CF6430710569F080F066307105CD
:100E600009F48FCFF4CFE42F4B2F592F8ACFE42FE3
:100E7000412F87CFEB2F542F492F83CF4B2F5D2D41
:100E8000E12F7FCF0E9451069C0190913A02809100
:100E90003B02982B21F03093370220933602909139
:100EA0003C0280913D02982B21F030933502209333
:100EB0003402E0915C02F0915D02309749F082E0EB
:100EC000809338020480F581E02D88E392E0099553
:100ED000089540913A028D3E59F480913B0287FF7C
:100EE0000DC010923B0241110BC01092320208C09B
:100EF0008E3E81F480913B0218169CF3442381F0CE
:100F000080913C0290913D02892B09F05AC01092C9
:100F1000310208958F3E49F447FFF0CF10923A0214
:100F200080913B028111ECCFE0CF803F19F4141681
:100F3000ACF3E4CF90913C02893F29F41916F4F602
:100F400010923C02DBCF8A3F19F497FFD7CFF8CF3E
:100F500090913D028B3F29F497FFD0CF10923D0234
:100F6000CDCF8C3F19F41916CCF3C8CF9FE0980F62
:100F7000983090F4815F990B21E030E0B90102C014
:100F8000660F771F8A95E2F7CB0180959091390221
:100F9000892380933902B2CF8D3F31F4809133029F
:100FA0008E7F80933302AACF8E3F21F4809133024B
:100FB0008D7FF7CF8F3F09F0A1CF809133028B7FD8
:100FC000F0CF08958091330280FD16C081FD16C0D8
:100FD00082FD16C0809131028823A1F0883280F40E
:100FE00028E0829FC001112468E270E00E94782509
:100FF000862F672B39F0089582E0089584E00895E4
:1010000088E0089581E008958091330280FD14C046
:1010100081FD14C082FD16C080913202882381F0C8
:101020008E3180F420E5829FC00111246EE170E0D2
:101030000E947825862F089584E1089588E2089516
:1010400088E0089580E508958D3E31F40E940408FB
:10105000819580933B0208958E3E19F40E94040806
:10106000F8CF8F3E31F40E940408819580933A02B4
:101070000895803F19F40E940408F8CF893F29F4AD
:101080000E94E20780933C0208958A3F21F40E9467
:10109000E2078195F7CF8B3F31F40E94E2078195FB
:1010A00080933D0208958C3F19F40E94E207F8CF27
:1010B0009FE0980F983070F4815F990B21E030E049
:1010C00001C0220F8A95EAF780913902822B809322
:1010D000390208958D3F31F480913302816080930D
:1010E000330208958E3F21F4809133028260F7CF5E
:1010F0008F3FB9F7809133028460F1CF80E008958B
:10110000F894E82FE295EF70F0E031A1282F2F70CE
:1011100081E090E001C0880F2A95EAF7982F90951A
:10112000932391A392A1892B82A3789408959091FF
:10113000650292FF06C0282F28712830F9F4877FB6
:10114000846093FF06C0282F28712831F1F4877E30
:1011500084612091660220FF06C0382F3871383034
:10116000D9F4877F816021FF06C0282F287128319C
:10117000D1F4877E816194FD877E0895282F2471A4
:101180002430F9F68B7F8860DCCF282F247124313E
:1011900001F78B7E8861DDCF382F3171313019F73F
:1011A0008E7F8860E0CF282F2171213121F78E7E3C
:1011B0008861E1CF7230A8F4643098F4E82FF0E051
:1011C000EE0FFF1FE70FF11DEE0FFF1FEE0FFF1FCA
:1011D000E60FF11DEE0FFF1FE455FF4F859194912F
:1011E000089580E090E00895CF93DF93EC0182387A
:1011F0009105A9F1D8F58133910509F496C048F518
:101200008932910509F48AC08A9709F495C0C115FD
:1012100021E5D20708F0BCC0C11530E5D30708F0BE
:1012200014C1C83ED10508F09CC0C03ED10560F590
:10123000C83AD10508F087C0C53AD10508F0FDC00D
:10124000C130D10509F12097F9F0C430D105E0F49F
:1012500040C08533910509F45AC0C997C1F6809101
:101260006502837089F0C0EED0E00EC0833E910528
:1012700099F170F4803E910501F1823E910539F6B5
:101280008091650282FD21C0CE01DF91CF9108954A
:10129000863E910561F1873E910571F1843E91058D
:1012A00009F0B5CF8091660281FFEECF8091650293
:1012B000C7EED0E084FD0DC0E7CF8091650280FDD0
:1012C00012C19091660290FFDFCFC3EED0E084FFA1
:1012D000DBCFD0E0C0E0D8CF8091650282FD06C1AF
:1012E0009091660290FDBFCF84FFCECFF2CF809168
:1012F000650283FDDDCFC8CF8091650283FDF9C013
:101300009091660291FFF0CFC4EED0E0BDCF809106
:10131000650285FFB9CFC9E2D0E0B6CF8091650202
:1013200085FFB2CFC5E3D0E0AFCF8091650286FFE5
:10133000ABCFCAE2D0E0A8CF8091650286FFA4CFF0
:10134000C1E3D0E0A1CFCF3BD10518F6C85AD0E019
:10135000CC0FDD1FC55DDE4F0990D881C02DD46450
:1013600093CFC11540E2D40758F4C11581E0D807E6
:1013700008F08ACFCD3ED10508F4ABCFD06584CF3D
:10138000C11590E4D90708F4A4CFDF70D06A7CCFF0
:10139000C11525E5D20700F5C11534E5D30708F0DE
:1013A0008AC0C11543E5D40708F071C0C11582E5B4
:1013B000D80708F467C0CE018370992721E030E098
:1013C00002C0220F331F8A95E2F7C695C69580E2C8
:1013D000C89FE001112452C0C11599E5D907A8F4AE
:1013E000C11528E5D20708F06BC0C11536E5D30753
:1013F00008F06FCF8C2F0E949708C82FD0E0DC2F09
:10140000CC27CC27DF71D0623FCFC1154AE5D40786
:1014100008F45BC0CE0190568115904208F059CF78
:101420008D2F8F710E94970890E0982F882788272A
:101430009F719C012C2BE901E6CFC55AD0E0C85D15
:10144000DE4FC881D0E0D0641FCFCE01E4E0969596
:101450008795EA95E1F783702C2F269526952370C2
:1014600040E2249F90011124382B8C2F8370C1E01F
:10147000D0E002C0CC0FDD1F8A95E2F7C22BD32B40
:10148000DC6802CFDC2FCC27C16FD06AFDCECE0145
:101490008370992721E030E002C0220F331F8A9524
:1014A000E2F7C695C69590E2C99FE0011124C22BD0
:1014B000D32BDA68E9CEDC2FCC27C46FD06AE4CE18
:1014C000DC2FCC27C06FD06ADFCE8C2F8F700E94AC
:1014D000970834E0D695C7953A95E1F7CF709C2FE1
:1014E000EC01D069D1CEC9E3D0E0CECEC2EED0E0DF
:1014F000CBCEC6EED0E0C8CE8091170281111092FB
:1015000017020895809590911602982390931602E1
:101510000895909127019923D1F09091650297FF4A
:1015200016C0E82FE695E695E695EE31E0F4F0E09A
:10153000EA56FE4F282F277081E090E001C0880F07
:101540002A95EAF780959281892382830895E8E9B4
:10155000F1E09191891303C0DF0111971C9291E092
:10156000EE39F907B1F70895909127019923C1F059
:101570009091650297FF14C0E82FE695E695E695F1
:10158000EE31F8F4F0E0EA56FE4F877021E030E0EB
:1015900001C0220F8A95EAF78281822B8283089507
:1015A000A8E9B1E0EFEF90E02D91821751F0EF3F05
:1015B00019F4211101C0E92F9F5F9630A9F7EF3F81
:1015C00009F408950E2E000CFF0BEA56FE4FE6CFED
:1015D0008091F3019091C201981301C008958F5F2B
:1015E0008770FACFB0E0A0E0E8EFFAE00C94EE25C7
:1015F0008C01C0902402D0902502E0902602F09049
:1016000027028091180290911902A0911A02B091BC
:101610001B02C82AD92AEA2AFB2ACFE1D0E0BC2E35
:10162000D701C6010C2E04C0B695A795979587954E
:101630000A94D2F780FD09C0219788F7B12C8B2D31
:10164000CDB7DEB7E9E00C940A26B8018C2F0E94D2
:10165000DA080E94F408019779F3F1CFCF93DF9372
:10166000EC010E94F20ABE010E94DA080E94F4080E
:10167000DF91CF910895923018F5843008F524E079
:10168000929FB0011124680F711DE7EBF1E050E06B
:1016900040E080E0219130E0062E02C0369527958B
:1016A0000A94E2F721703327042E01C0220F0A9416
:1016B000EAF7822B4F5F5F4F4530510559F7089588
:1016C00080E00895923040F5843030F544E0949FF6
:1016D00090011124820F932F911D21E001C0220F50
:1016E0008A95EAF7E7EBF1E050E040E070E03191F5
:1016F000DF011197CB01042E02C0969587950A94BD
:10170000E2F7817081958327822383278C934F5F33
:101710005F4F4530510559F70895FC018081918153
:101720000E942E0B92959F70963091F058F4925F24
:101730009F70923058F4803F19F030F4883E30F4B6
:1017400081E008959A5FF4CF843FD1F380E008955B
:10175000883EB0F3813FD1F7F3CF96E890937A00BB
:10176000982F9072906890937B008F718064809323
:101770007C0080917A00806480937A0080917A0066
:1017800086FDFCCF809178002091790090917A00BD
:101790009F7790937A00922F0895809367027093B9
:1017A00069026093680280918F02843001F582E0C3
:1017B0008093E9008FEF9091E800815095FD06C07D
:1017C00095ED9A95F1F700008111F5CF8091E80031
:1017D00085FF0DC050E040E063E070E087E692E0F6
:1017E0000E94FD038091E8008E778093E8000895C1
:1017F000BC0184E00E94CD0B0895BC0183E00E94EF
:10180000CD0B08959C0182E08093E9009FEF8091C9
:10181000E800915085FD06C085ED8A95F1F700003E
:101820009111F5CF8091E80085FF0CC050E040E0B9
:1018300066E070E0C9010E94FD038091E8008E77A8
:101840008093E8000895CF93DF93EC018091270106
:101850008823B1F18091650287FF32C060E282E0A7
:101860008093E9008FEF9091E800815095FD06C0CC
:1018700095ED9A95F1F700008111F5CF8091E80080
:1018800085FF1BC08091270170E050E040E081118E
:1018900004C050E040E068E070E0CE010E94FD032B
:1018A0008091E8008E778093E80080E2FE01ADE64B
:1018B000B2E001900D928A95E1F7DF91CF91089502
:1018C00068E081E0CDCF81E08093E00080E280930A
:1018D000D8001092C9008FE19EE40197F1F700C093
:1018E000000087E090EBDC018093890390938A03EA
:1018F000A0938B03B0938C0388E19CE00FB6F8941F
:10190000A895809360000FBE90936000FFCF8091F8
:10191000550280FD0AC0E9E4F2E0118210821282D1
:10192000339652E0E535F507C1F7869A31B33F7B30
:1019300021B320644FB7F89489E492E0FC015191FF
:10194000CF0168E021BB000000C057FF31BB550F3D
:10195000000000C000C000C031BB00C06A9591F714
:10196000F2E085359F0751F74FBF8FE594E001976F
:10197000F1F700C000000895EF92FF920F931F93BC
:10198000CF93DF938C01C9E4D2E0F12CE12CF80174
:1019900094816091570280915602F2E0EF16F104B3
:1019A000ECF49923E9F09E01409158020E94AC06A4
:1019B0002FEFE21AF20A239684E0E816F10439F7D1
:1019C0000E94870CF801848190E00196817099272C
:1019D0008483CDB7DEB7E6E00C940D26992319F386
:1019E0009E0140E0E3CFB0E0A0E0E9EFFCE00C9422
:1019F000EB25EC014C81042F10E09801D8010E94E6
:101A0000BC259B01AC010E94D2254B015C01E0E2A8
:101A1000F0E0E01BF10BA5E5B0E0AC019B010E94FA
:101A2000D2256B017C019F01DF010E94B4259B013F
:101A3000AC010E94DD259B01AC01280D391D4A1D1A
:101A40005B1DC701B6010E948C25F22E822F90E00B
:101A500039E23F15A0F143E0249F90011124359510
:101A60002795122F109599E4C92E92E0D92E00E007
:101A700085E5E82EEF18802F869589F58E2D960145
:101A8000412F609157020E94AC060F5F53E0C50ED4
:101A9000D11C043081F70E94870C9C8181E099233E
:101AA00019F0903219F48FEF80931A0180911A0186
:101AB000890F8C83CDB7DEB7ECE00C94072625E5C3
:101AC00030E0A901481B590BCA019A01220F331FAC
:101AD000280F391F37FFC3CF2F5F3F4FC0CF8F2D48
:101AE000CECF0F931F93CF93DF93C9E4D2E0FE01D3
:101AF000118210821282339682E0E535F807C1F731
:101B000010E000E080914702082E000C990B0817A6
:101B100019078CF180911901082E000C990B801780
:101B200091074CF19E0140915802609157028091BB
:101B300056020E94AC060F5F1F4F2396043011051A
:101B400009F70E94870C8091180190914702980F25
:101B50009093470220911901280F20931901121622
:101B600014F493301CF0819580931801DF91CF918C
:101B70001F910F910895198218821A82DCCFB0E06C
:101B8000A0E0E5ECFDE00C94EF25FC018281DD2472
:101B9000DA9480FD02C0DD24D394C9E4D2E010E0E1
:101BA00000E0198218821A8294E0E92EF12CC12CEF
:101BB000809146028C0D8530ACF18370082E000CAC
:101BC000990B8017910791F4809158028E9DA00186
:101BD0008F9D500D112455954795559547959E011C
:101BE00060915702809156020E94AC06CD0CF1E044
:101BF000EF1AF108E9F60F5F1F4F23960430110525
:101C000081F60E94870C8091460291E0D91210C0A3
:101C100081110CC083E080934602CDB7DEB7E8E0C7
:101C20000C940B2687FFCACF8C5FC8CF8150F3CFAF
:101C300090E0019683709927EECFEF92FF921F9369
:101C4000CF93DF93EC0189E4E82E82E0F82E10E0D8
:101C50008C8197014091580260915702810F0E9438
:101C6000AC06115C83E0E80EF11C1C3F89F70E9472
:101C7000870C9A818C8190FF08C08F5F8C83DF91E5
:101C8000CF911F91FF90EF9008958150F7CF9091E1
:101C9000550290FF0CC0E9E4F2E081836083428347
:101CA000339692E0E535F907C1F70E94870C089555
:101CB000A3E0B0E0EEE5FEE00C94F3258C0180910A
:101CC000480281110AC09E012F5F3F4F4FEF6FEF17
:101CD0000E94AC068A8180934802F80164816130D9
:101CE00069F08091480240E0662361F040E0623094
:101CF00011F44091480280E060E004C06091480225
:101D000040E080E00E94470EF801848190E0019657
:101D100063E070E00E94782584832396E4E00C94CD
:101D20000F26A3E0B0E0E7E9FEE00C94F5259091E2
:101D3000550290FF0AC09E012F5F3F4F0E94AC06E4
:101D40004B8169818A810E94470E2396E2E00C94C0
:101D50001126CF93DF93EC01E5E5F2E04381628148
:101D60008C810E94910E8C818F5F8C83DF91CF914B
:101D70000895CF93DF93EC01EC81F0E0ED5BFD4F34
:101D80004491E5E5F2E0628181810E94910E8C81AF
:101D90008F5F8C83DF91CF91089560915502669596
:101DA00070E04BE050E08DE091E00E941C26892B12
:101DB00019F481E0809345020E94510690933F02FE
:101DC00080933E020895CF92DF92EF92FF926B01D3
:101DD0007C010E949D06B701A60188E090E00E9468
:101DE0005C26FF90EF90DF90CF900895A3E0B0E0E5
:101DF000ECEFFEE00C94EA25F82EB62EE42EA22E8F
:101E00009091550290FF29C0E92FE695AE2FB0E0E2
:101E1000A15ABE4F8C91809344029E7F923009F567
:101E20009E012F5F3F4F8F2D0E94AC064B81698131
:101E30008A810E94470EF0925602B0925702E092B9
:101E40005802AA2051F0609155027091560280917B
:101E50005702909158020E94E30E2396EDE00C94F5
:101E60000626823019F4E0905802E5CF863019F446
:101E7000F0905602E0CF8930D9F38931E1F6E9518B
:101E80002E2F2170722EE695F0E0E25CFD4FE4917A
:101E90000E2F10E039E4C32E32E0D32E912C812C8A
:101EA000C4019695879596958795711013C08F0DEF
:101EB00096014E2D6B2D0E94AC06800E911E83E084
:101EC000C80ED11C25E5C21622E0D20649F70E94B1
:101ED000870CB1CF2F2D281B822FEACFE5E5F2E04A
:101EE000438128E0421B08F440E021E062818181C7
:101EF0000E94F60E0895E5E5F2E0438128E0420FE6
:101F000008F44FEF21E0628181810E94F60E08956E
:101F1000E5E5F2E0628128E0621B08F460E021E080
:101F2000438181810E94F60E0895E5E5F2E0628129
:101F300028E0620F08F46FEF21E0438181810E9465
:101F4000F60E0895E5E5F2E0818121E043816281AA
:101F500088500E94F60E0895E5E5F2E0818121E0C7
:101F600043816281885F0E94F60E08958091590234
:101F7000882319F081508093590260915502709125
:101F8000560280915702909158020E94E30E0895E4
:101F900080915902833018F48F5F809359026091C9
:101FA00055027091560280915702909158020E94FA
:101FB000E30E08959091550290FF2CC0917081110D
:101FC0002AC0926090935502662351F060915502A9
:101FD0007091560280915702909158020E94E30E30
:101FE00060915502669570E04BE050E08DE091E025
:101FF0000E941C26892BB1F01092450281E080934B
:10200000410220E0409158026091570280915602AF
:102010000E94F60E0895853210F09864D3CF880F91
:10202000982BD0CF0E94CD0EE9CF80915502869596
:10203000815009F484E261E00E94DA0F08958091F2
:10204000550286958F5F853208F081E061E00E943D
:10205000DA0F08959091550290FF08C09695981751
:1020600028F0961718F40E941F10089561E00E944E
:10207000DA0F0895E5E5F2E083E0808311828FEFC7
:1020800082838383148260817181828193810E9423
:10209000E30E0895A2E0B0E0E0E5F0E10C94EC2559
:1020A0001A82198259E5E52E51E0F52E10E000E084
:1020B000CC24C394D12C7FE5A72E71E0B72EF70175
:1020C00081917F018F3F09F445C0F894E82FE29594
:1020D000EF70F0E021A18F70A60102C0440F551FE0
:1020E0008A95E2F7CA01922F982B91A392A180952D
:1020F000892382A3789400C0EBE5F1E0912C31E0D4
:1021000021912F3F09F45DC0A22FA295AF70B0E0DE
:1021100090968C9190E02F7002C0959587952A95A6
:10212000E2F780FD4EC0832F982A330FAE16BF060C
:1021300039F7F701319780818F3F11F00E948008B5
:1021400050EA5A95F1F7E1E0F0E0EC0FFD1FE00FE7
:10215000F11F90820130110589F542E050E0BE0187
:102160006F5F7F4F82E292E00E94292611E0009784
:1021700009F410E0892B39F189819A819093230227
:102180008093220281E080931E020E945106909368
:102190001D0280931C0280911C0290911D020E94DE
:1021A00042060597A0F08091220280932B02809135
:1021B000230280932C0210921E0209C001E010E05D
:1021C0007ECF80E0B1CF80911E028111E4CF80915B
:1021D000210291E0980F90932102811133C080E297
:1021E0000E94AD0B43E0959587954A95E1F72091C4
:1021F0001F02309120028217930721F180E20E9492
:10220000AD0B23E0959587952A95E1F78095082FEA
:102210000F77209100012F77E0919902F0919A02B7
:1022200042EB63E070E089E992E0099580E20E9468
:10223000AD0B33E0959587953A95E1F790932002A1
:1022400080931F02812F2296EBE00C940826809148
:10225000160290911502892B809396019091170296
:102260009923A1F0892B80939601809127018823DF
:10227000E1F18091650287FF38C08EE1E8E9F1E085
:1022800090E08150A0F591110E947C0A40E250E05C
:1022900065EF71E086E991E00E942926892B21F102
:1022A00080E2E6E9F1E0A5EFB1E001900D928A95B8
:1022B000E1F7E0915C02F0915D023097A9F0809126
:1022C0002701882359F08091650287FF07C080911C
:1022D00096018093970186E0809396010280F381B6
:1022E000E02D86E991E00995089586E0C7CF219118
:1022F000222339F29F5FC5CF90E080E00E947306F1
:1023000090E080E00E945D06109215020E94271165
:1023100086E0E8E3F2E0DF011D928A95E9F710928A
:10232000320210923102109233020E944207089545
:1023300060932402709325028093260290932702D3
:102340000E947C1108950F931F9341E050E060E0DC
:1023500070E004C0440F551F661F771F8A95D2F79F
:10236000CB01BA01609570958095909500912402FB
:1023700010912502209126023091270260237123BB
:10238000822393230E9498111F910F910895909199
:10239000F401809589238093F401282F277091F40C
:1023A000282F082E000C330B9217130659F090912A
:1023B000660292FF07C08595859585950E94A311B9
:1023C0001092F40108950F931F9341E050E060E0F4
:1023D00070E004C0440F551F661F771F8A95D2F71F
:1023E0008091240290912502A0912602B0912702AB
:1023F0008A019B01082B192B2A2B3B2BC901B80101
:102400000E9498111F910F91089560931802709384
:10241000190280931A0290931B020E947C11089566
:10242000882321F00E94820A0E94271108958823A0
:1024300039F090911602982B909316020E94271162
:102440000895882309F455C0823879F40E948906DA
:1024500081FF4FC089E30E94B40A0E94271189E3DB
:102460000E94890A0E9427110895833859F40E9416
:10247000890680FF3EC083E50E94B40A0E942711AE
:1024800083E5EECF843859F40E94890682FF31C07B
:1024900087E40E94B40A0E94271187E4E1CF9CEFF1
:1024A000980F913AE8F290E2980F983050F48770C4
:1024B00091E001C0990F8A95EAF7892F0E94820A5C
:1024C000D1CF9BE5980F933028F490E080E00E94F4
:1024D0007306089598E5980F973128F490E080E00E
:1024E0000E945D0608958D3E20F00E9469070E94BB
:1024F00042070895CF93C82F8823C9F08238C9F4C2
:102500000E94890681FD13C089E30E94B40A0E94DB
:1025100027112FEF81EE94E0215080409040E1F7A9
:1025200000C0000089E30E94890A0E942711CF9110
:1025300008958338A1F40E94890680FDF8CF83E5D1
:102540000E94B40A0E9427112FEF81EE94E02150DF
:1025500080409040E1F700C0000083E5E4CF84387C
:10256000A1F40E94890682FDE2CF87E40E94B40AAA
:102570000E9427112FEF81EE94E02150804090407F
:10258000E1F700C0000087E4CECF8CEF8C0F813ADA
:1025900088F580912701882301F18091650287FFEA
:1025A0001CC0EC2FE695E695E695F0E0EA56FE4F66
:1025B000828190E04C2F477021E030E002C0220F72
:1025C000331F4A95E2F782239323892B79F08C2FCE
:1025D0000E94890A0E94271109C0E8E9F1E081916F
:1025E000C817A9F321E0EE39F207C9F78C2F0E9432
:1025F000B40A9BCF80E28C0F883068F4C77021E06A
:1026000030E001C0220FCA95EAF780911602822BB2
:10261000809316028ACFEBE5EC0FE33040F4F0E054
:10262000E85DFE4F808190E00E94730680CFE8E570
:10263000EC0FE73150F4F0E0EE0FFF1FE55DFE4FC9
:10264000808191810E945D0672CFCD3E08F46FCFEC
:102650008C2F0E9424080E94420769CF0F931F937A
:10266000CF93DF93C62FD42F022FFC0182818823C2
:10267000A9F0609388030E9451069093870380938A
:102680008603C77081E001C0880FCA95EAF70E94EF
:102690001712DF91CF911F910F91089580918803B8
:1026A000681335C080918603909187030E9442068B
:1026B000883C910560F510E21D0FCD17B9F080E25E
:1026C0008C0F883040F4C77081E001C0880FCA9534
:1026D000EAF70E941012183048F481E09D2F97709D
:1026E00001C0880F9A95EAF70E941712802F0E9466
:1026F0007A12802F0E942112183058F6D77081E08C
:1027000001C0880FDA95EAF70E941012C2CFC77095
:1027100081E001C0880FCA95EAF7F6CFCF9384E035
:1027200090E00E943626C82F82E290E00E94362672
:10273000982F8C2FCF910895109216028091270127
:10274000E8E9F1E0882361F08091650287FF08C025
:102750008EE1DF011D928A95E9F70E947C110895B0
:1027600086E0F7CFAAE2B0E0E8EBF3E10C94F425C1
:1027700081E992E02091F100FC012193CF01F2E088
:1027800089399F07B9F780919202833009F470C0AC
:10279000B8F4813009F447C0823009F4B1C08091A7
:1027A000E80083FF88C280919102909192029A3052
:1027B00008F081C2E92FF0E0E058F94D0C94AE2505
:1027C0008A3009F48CC08B3009F46FC0893039F736
:1027D00080919102813219F7809195029091960231
:1027E0000297E8F68091E800877F8093E800809167
:1027F000E80082FF38C09091F3008091F2000297C8
:1028000031F48091F100813011F0863021F4809113
:10281000F10080936C028091E8008B778093E80050
:102820000E942704BCCF80919102813A09F0B7CF72
:102830008091E800877F8093E800809195029091D5
:102840009602892B61F460E28DE692E070E00E94CE
:10285000D3048091E8008B778093E800A0CF60E0FC
:1028600090E080E0F3CF80918F028111C0CF97CFAD
:1028700080919102813A09F092CF809195029091D6
:102880009602892B09F08BCF8091E800877F809397
:10289000E8008091E80080FFFCCF809127018093C1
:1028A000F1008091E8008E77B9CF8091910281325A
:1028B00009F075CF8091950290919602892B09F0CD
:1028C0006ECF8091E800877F8093E8000E94270404
:1028D00080919302809327010E949C1360CF809186
:1028E0009102813209F05BCF8091E800877F80936D
:1028F000E8000E9427048091940280936B024FCFDE
:1029000080919102813A09F04ACF8091E800877F57
:102910008093E8008091E80080FFFCCF80916B02FB
:10292000BECF803899F0823809F0C5C180919502F8
:102930008F70873008F0BFC18093E9008091EB0071
:1029400085FB882780F91092E90006C080918D02EE
:1029500090918E02911182609091E800977F909300
:10296000E8008093F1001092F1008091E8008E77EA
:102970009EC1882309F48CC1823009F09CC18091EA
:10298000930281118FC1809195028F702FEF280FD4
:10299000263008F090C18093E9002091EB0020FFE1
:1029A00081C1933031F48091EB0080628093EB0021
:1029B00079C19091EB0090619093EB0021E030E0C1
:1029C00001C0220F8A95EAF72093EA001092EA00EC
:1029D0008091EB008860EACF81116DC11091930264
:1029E0001F778091E3008078812B8093E3008091B2
:1029F000E800877F8093E8000E9427048091E80028
:102A000080FFFCCF8091E30080688093E30082E048
:102A1000111183E080938F024EC18058823008F0FC
:102A20004AC180919302909194028C3D23E09207D9
:102A3000A1F583E08A838AE289834FB7F894DE01A7
:102A4000139620E03EE051E2E32FF0E05093570070
:102A5000E49120FF03C0E295EF703F5FEF708E2F8F
:102A600090E0EA30C0F0C7968D939D932F5F24319C
:102A700059F74FBF8091E800877F8093E8006AE2B2
:102A800070E0CE0101960E94D3048091E8008B771C
:102A90008093E80010C1C096E7CF40919502509115
:102AA0009602292F33272330310509F444C078F5E5
:102AB0002130310509F46FC08FE990E0E9E3F4E0DB
:102AC0002230310509F0F7C02091E800277F2093DC
:102AD000E80020919702309198028217930708F43A
:102AE0009C0140E02115310509F064C0411162C02C
:102AF0008091E80082FDC9CF80918F02882329F25E
:102B0000853019F28091E80083FFF2CFBECF2132E9
:102B10003105A9F12232310509F0CDC04115510529
:102B200009F443C04130510509F0C5C086EB90E07F
:102B3000E3E4F3E0C9CF992781309105C1F0009714
:102B400059F0029709F0B7C0EAEEF4E0E4918E2F55
:102B500090E0EAEEF4E007C0ECE1F5E0E4918E2FBE
:102B600090E0ECE1F5E0009709F4A5C0ADCFE6E018
:102B7000F5E0E4918E2F90E0E6E0F5E0F4CF41152A
:102B8000510571F04130510509F095C089E090E0A0
:102B9000E4E6F4E099CF82E190E0E8EDF4E094CF50
:102BA00089E090E0EBE4F4E08FCF80E490E0E9EF9F
:102BB000F3E08ACF80918F02882309F466CF8530B5
:102BC00009F463CF8091E80083FD5FCF8091E80036
:102BD00082FD8ECF8091E80080FF84CF9091F3003A
:102BE0008091F2002115310519F08830910550F0DF
:102BF00041E0089709F040E08091E8008E778093EB
:102C0000E80070CF44914093F10031962150310992
:102C10000196E8CF803809F04EC08091E800877FA8
:102C20008093E800809190028093F1009ECE811104
:102C300042C0109193021230F0F58091E800877F36
:102C40008093E800109390020E942704112311F052
:102C500084E005C08091E30087FDFACF81E0809396
:102C60008F0242E061EC81E00E94460442E261ECA6
:102C700082E00E94460442E361E883E00E94460449
:102C800042E361E884E00E94460480918F0213C011
:102C900080919302813079F481E0933009F080E0F3
:102CA00080938E021092E9008091E800877F8093E4
:102CB000E8000E9427048091E80083FF0AC0809109
:102CC000E800877F8093E8008091EB00806280932A
:102CD000EB00AA96E3E00C9410260E949C132FEFC1
:102CE00084E39CE0215080409040E1F700C0000068
:102CF00088E19CE00FB6F894A895809360000FBE21
:102D000090936000FFCF68EE7EEF90E080E00E943D
:102D1000682660E082E090E00E944A2660E083E05E
:102D200090E00E944A261092180210921902109206
:102D30001A0210921B0260E084E090E00E944A2692
:102D400064E082E290E00E944A2660E085E090E044
:102D50000E944A2660E086E090E00E944A266FEFDB
:102D600087E090E00E944A2640E050E0BA0188E007
:102D700090E00E945C2660E08DE090E00E944A2690
:102D800040E050E0BA0188E190E00E945C2660E0FB
:102D900087E190E00E944A2640E050E0BA018CE1D1
:102DA00090E00E945C2670E060E080E290E00E948B
:102DB000682640E050E0BA0188E190E00E945C267D
:102DC00040E050E0BA018FE090E00E945C2640E0D5
:102DD00050E0BA0183E190E00E945C260895CF9311
:102DE000C0916602C2FB992790F9981791F080FB79
:102DF000C2F9C09366026091650284E090E00E948F
:102E00004A266C2F82E290E00E944A2682E00E94CD
:102E1000C711CF910895A5E0B0E0E1E1F7E10C948E
:102E2000E7257C01FC0183819481892B31F080812D
:102E3000918189238F3F09F01BC52596E0E10C9411
:102E400003260E94F20A182F682F89819A810E9416
:102E5000620B69817A81812F0E94DA088C01803BA4
:102E6000FDE59F0709F4A4C0B0F58E3A9D4509F42D
:102E700041C00F3A8DE5180709F493C0043FFCE503
:102E80001F0709F4B5C008F0A1C0093D3CE51307D0
:102E900009F4AAC00A3D8CE5180709F4B5C0083D3D
:102EA0009CE5190771F526E241EE61EEC7010E942B
:102EB0002E138091F401877009F4BFCFF70182814E
:102EC000882309F4BACF8091660282FFB6CF82E0F0
:102ED0000E94C711B2CF013B9DE5190709F46FC0ED
:102EE000023BEDE51E0751F6F7018281882349F088
:102EF00082E405C0F7018281882319F08EE3809374
:102F00000001F7018281882309F4C3C41092880369
:102F10000430FDE51F0708F07AC00B3F2CE51207CF
:102F200030F4C80182509C45449708F07AC00E9452
:102F30008E13909366028093650201319CE5190718
:102F400009F448C108F0C4C00930FCE51F0709F4C2
:102F50002BC108F08FC005303CE5130709F41CC1F4
:102F600008F074C003309CE5190709F40BC108F0A0
:102F70000FC18091650281600230FCE51F0709F4F2
:102F800004C1609165021091660284E090E00E94A5
:102F90004A26612F82E290E00E944A260E949C13FA
:102FA00088CFF7018281882309F4ABCF8FE3A7CFC5
:102FB000F7018281882309F4A4CF80E4A0CFF70130
:102FC0008281882309F49DCF81E499CF063FECE507
:102FD0001E07B1F088F0073F2CE5120709F091CFEA
:102FE00027E245EE66EE62CF27E245EE65EE5ECF64
:102FF00026E241EE60EE5ACF27E245EE64EE56CF70
:1030000026E241EE62EE52CF28E241E0EFCF0236F7
:103010003DE5130709F48BCF063A8DE5180709F44F
:1030200086CF06312CE5120709F0DDC48091160227
:103030008A7A91E009F490E09093B6018111F4C08E
:1030400089E20E94B40A0E94271133CF8091650261
:10305000806207302CE5120709F497C08091650261
:10306000806108303CE5130708F48FC08091650249
:1030700080648BC00D308CE5180709F49FC0A0F464
:10308000809165028E7F0B30ECE51E0709F47DC050
:10309000809165028C600C30FCE51F0708F475C058
:1030A000809165028D7F71C0809165028F7E0F30A7
:1030B0002CE5120709F469C080916502877F003111
:1030C0003CE5130708F461C0809165028F7D5DC007
:1030D0000E3F8CE5180709F479C058F50531ECE589
:1030E0001E0709F481C098F480916502837F033143
:1030F0002CE5120709F449C008F470C00E949C1323
:1031000090916502892F97FB87F980583EC00C3F4C
:103110008CE5180709F444C008F054C08091660299
:1031200081600B3FECE51E0709F02BCF8093660210
:1031300028CF0230FDE51F0709F462C090F48091AA
:1031400066028C7F01153DE5130781F398F18091AC
:103150006602982F909591708E7F892B90FB81F954
:10316000E5CF02369DE5190709F450C0063AEDE5B2
:103170001E0709F452C00330FDE51F0709F001CF17
:1031800060E03FC080916502826080936502F9CE65
:10319000809165028460F9CF809165028860F5CFE7
:1031A000809166028260C2CF0E949C13809165026A
:1031B0008068EBCF809166028360B8CF8091650212
:1031C0008B7FE3CF809166028E7FB0CF80916602C5
:1031D0008D7FACCF809165028F7BD7CF0E949C13EF
:1031E000809165028F77D1CF8091650282FB99270C
:1031F00090F921E0922790FB82F990FB83F9C5CFEB
:1032000061E08EE090E00E944A26BBCE909165027C
:10321000892F8F7E94FF8061B8CF90916502892FAE
:103220008E7F90FF8160B1CF85E30BCF8091B60197
:10323000811104C089E20E94890A05CF85E3FBCF92
:1032400081608093550261E086950E94DA0F31CE4D
:1032500045E150E16FE170E10E9496062ACE4FE110
:1032600050E165E170E1F8CF4CEA5FE062EA7FE0AF
:10327000F3CF48E85FE065E97FE0EECF4EE65FE040
:103280006BE77FE0E9CF4BE75FE06EE67FE0E4CFFE
:1032900048EC5FE066EB7FE0DFCF61E081E0D5CF17
:1032A00065E082E00E942A1004CE68E086E0FACF52
:1032B00064E18FE0F7CF67E185E1F4CF62E289E175
:1032C000F1CF61E083E2C1CF0E949C13EFEFF4E302
:1032D0002CE0E150F0402040E1F700C000000E94E7
:1032E000630C8091660282FB882780F991E0892730
:1032F0000E94EF16F701828100811181882309F471
:1033000045C0C8010E94F20AD82E682FC8010E9449
:10331000620BB8018D2D0E94DA080E94F4088C011E
:10332000882EF701D280958092943FE0932280917D
:10333000F4018770C1F0BD2CDD20B1F0812F807FBA
:10334000803421F080E2800F883068F0809166023E
:1033500082FF09C082E00E94C7118091F40187704A
:10336000BB24B3948111B12CA12EA2942FE0A222F0
:10337000FBE0FA1508F476C0EA2DF0E0E657F94DC7
:103380000C94AE2581E0B4CF80E0B2CFC8010E949A
:103390003B0BD82EBECF212F2F70C22E107F19F0DD
:1033A000C29490EFC922DD20B9F0CC2069F080E210
:1033B000800F883010F0811009C080911602C82A51
:1033C000C09216020E942711802F4AC080911502D8
:1033D000C82AC0921502F6CF802F0E942112CC205D
:1033E00009F440C0005E083010F0811004C08C2D3C
:1033F0000E94820A06C0C09480911502C822C09221
:1034000015020E9427112EC0312F3F70C32E107F4E
:10341000103219F0C29480EFC822882089F081E030
:10342000881609F477C0DD2009F481C0992009F4D9
:1034300077C0F701858180FFC7CF8F70858370C00B
:103440002091660222FD43C0DD20D9F1CC2039F065
:1034500080911602C82AC09216020E94271180E0AD
:103460000E947A12EA2DE850FF0B349710F40E9464
:103470008906BB20A9F08091F40180FD11C0F701FD
:1034800012828595859585950E94E311C7010E945A
:103490000B178091F4018595859585950E94A31160
:1034A00085E0F701DE01119601900D928A95E1F712
:1034B00009811A81C8010E943B0BB8010E94DA08F9
:1034C000BCCC80E00E942112CC2061F290CFDD20A4
:1034D000A1F0909117028C2D892B911003C00E94AE
:1034E0001712C0CFE1E09E12FACF22FFBBCF981790
:1034F00009F4B8CF80931702B5CF911006C00E948F
:103500007C0A8C2D0E941012ADCFF1E09F1609F4B9
:10351000A9CFF5CFDD2031F025E0291508F4A2CFA1
:103520008C2DDDCF34E0391508F49CCFEACF9920FB
:1035300041F3F9E38F1295C12FEF37EE83E021506D
:1035400030408040E1F700C000008BC1812F86959C
:103550008695837061F0813009F084CFC801937043
:10356000D11002C090E080E00E945D067BCFC801D0
:103570009370D11002C090E080E00E94730672CF79
:10358000802FDD2029F00E9424080E9442076ACF84
:103590000E946907FACF812F837009F066C0D110AD
:1035A00061CF802F829586958770880F880F602F56
:1035B0006F70462E512C712C612C082E04C0440CC7
:1035C000551C661C771C0A94D2F740E050E0BA0103
:1035D00004FF0FC04FE050E060E070E004C0440F13
:1035E000551F661F771F8A95D2F7409550956095B5
:1035F0007095812F869586958370823019F1D8F465
:10360000009118021091190220911A0230911B02A8
:10361000813069F04429552966297729CB01BA01FF
:1036200060237123822393230E9405121BCF402A1B
:10363000512A622A732ACB01BA0164297529862985
:103640009729F2CF44295529662977290091180234
:103650001091190220911A0230911B02CB01BA017C
:103660006027712782279327DFCF8695DD2011F011
:10367000812F8170882309F4F5CE802F829586955D
:103680008770880F880F602F6F70462E512C712C19
:10369000612C082E04C0440C551C661C771C0A942F
:1036A000D2F740E050E0BA0104FF0FC04FE050E015
:1036B00060E070E004C0440F551F661F771F8A95B5
:1036C000D2F74095509560957095812F8695869597
:1036D0008370823019F1D8F40091240210912502F0
:1036E0002091260230912702813069F04429552922
:1036F00066297729CB01BA016023712382239323A2
:103700000E949811AFCE402A512A622A732ACB0117
:10371000BA016429752986299729F2CF44295529A8
:103720006629772900912402109125022091260212
:1037300030912702CB01BA01602771278227932796
:10374000DFCF1F70DD2029F0812F0E94E311802F31
:10375000C6CE802F0E941012812F0E94A31182CE0C
:10376000802F92EF891609F43FC0981570F0E0EFB2
:103770008E16D1F0F1EF8F1691F0DD2009F46CC0B8
:10378000911022CE812F8F7133C023EF821699F1D1
:1037900034EF8312F2CF8091660282FD3FC0812F09
:1037A0008F71DD20D1F224C0DD20C9F084E08915BD
:1037B00008F458CE1F7161E070E080E090E004C032
:1037C000660F771F881F991F1A95D2F70091240260
:1037D000109125022091260230912702ADCF95E06D
:1037E000991508F43FCEE6CF812F8F71D110B5CF58
:1037F0000E94E31137CE60E070E0CB01DD2009F4D8
:103800007FCF1F7161E070E080E090E004C0660F40
:10381000771F881F991F1A95D2F772CFDD2089F084
:103820001F71812F0E94E3118091660282FF07C001
:10383000E8E01E9FC001112483608093F401812F72
:10384000D7CF81E00E94C711F1E0F91508F00ACE48
:1038500082E00E94C71106CE992039F0893309F41D
:103860006BCE802F0E942112FDCD812F8F7175CFDD
:1038700085E0DE01119601900D928A95E1F7F7013E
:10388000228189819A812111DCCA0E943B0B182F69
:10389000E0CA0631FCE51F0709F4C8CC8091160286
:1038A00082720D3C2CE5120709F4F2CC08F063C0DB
:1038B000073C9CE5190709F4D7CCC8F5043CFCE5A6
:1038C0001F0709F4C5CC20F5033C3CE5130709F0BC
:1038D00011CD8091550280FFB3CC8E7F809355022D
:1038E0006091550270915602809157029091580252
:1038F0000E94E30E109245023FEF80E792E03150C4
:1039000080409040E1F700C000000E94870CD1CABF
:10391000053C9CE5190709F4A2CC42EA5FE06CEA99
:103920007FE0063CECE51E0709F496CCE3CC0A3CAC
:10393000FCE51F0709F4A2CC78F4083C3CE513072A
:1039400009F497CC45E95FE068E87FE0093C9CE535
:10395000190709F481CCCECC0B3CECE51E0709F429
:1039600092CC46EB5FE068EC7FE00C3CFCE51F0787
:1039700009F472CCBFCC023D2CE5120709F498CCB7
:10398000A0F40F3C8CE5180709F48ACC08F485CC28
:10399000003DECE51E0709F488CC6EE089E0013DAE
:1039A000FCE51F0709F47ECCA5CC053D2CE51207EC
:1039B00009F484CC68F4033D8CE5180709F47BCC4A
:1039C00061E088E1043D9CE5190709F43ECC92CC06
:1039D000063DECE51E0709F474CC0E35FDE51F0726
:1039E00009F467CA87CC0B352DE5120709F4CACC58
:1039F00068F401158CE5180709F466CC0F3D1C45E9
:103A000009F078CC0E9483160E946D160D35EDE505
:103A10001E0709F466CC08F4B7CC083A1D45A1F39B
:103A200069CC1F93CF93DF938091C101807F09F010
:103A300049C08091BE01882309F444C08091F301FC
:103A4000D091C2016091BC017091BD01A091BF01F4
:103A5000B091C001C62FC72316E0D81799F190E0A6
:103A6000109711F0CF3F19F401968770F6CF189F89
:103A70009001199F300D1124F901ED53FE4F418142
:103A80004713F2CF40814613EFCF42814111ECCF73
:103A9000438154814A1B5B0B483C510528F78091B8
:103AA000C1018F7080618093C101F901E853FE4F1D
:103AB00080818F70806180838CEB91E00E940B1776
:103AC0000E94E80ADF91CF911F910895A1E1B0E033
:103AD000ECE6FDE10C94ED258C0185E0F801DE01BA
:103AE0001D9601900D928A95E1F7F801E2808CEB2A
:103AF000A82E81E0B82E6091BF017091C0016115C0
:103B0000710509F426C19091BC014091BD01892F36
:103B100084238F3F09F41DC120813181C380D4806B
:103B2000F090BE01F601E61BF70BFF2009F4DCC0A4
:103B30008091C101582F507FE83CF10508F09FC0EB
:103B400051116BC0FE2C431314C0921312C0E1102C
:103B500010C08F7080618093C101C5010E940B1756
:103B60008091C101F80185838F2D6196EAE00C9464
:103B70000926C114D10429F0822F83238F3F09F035
:103B800003C180E0F82FF170DF2E80FF3CC08091F0
:103B9000F3014091C20156E0841315C02D873E8782
:103BA0008D859E850E942E0B292F22952F70223005
:103BB000F0F0243018F59F70F1F0F8019581907FB6
:103BC000D1F4D12C1EC090E0589FF001599FF00D08
:103BD0001124ED53FE4F6181361306C06081261318
:103BE00003C06281E6120FC001968770D5CF9F7027
:103BF00011F0882331F3805E883018F3C8010E94E9
:103C00000B17FD2CB1CFEE2009F4AECF8091C1018E
:103C100081608093C101F12CA7CF431306C092139A
:103C200004C0F801EE2009F479C0C8010E948D0B90
:103C3000882309F1EE20F9F08091C101803270F003
:103C40002091BC013091BD0138872F831986DB8616
:103C5000CA868C87CE0107960E940B1786E0F80172
:103C6000ACEBB1E001900D928A95E1F70E94111D35
:103C7000FF24F39479CFC8010E940B17F9CF51119B
:103C80000AC08CEB91E00E940B1786E0F5011192BF
:103C90008A95E9F7C0CF43130FC092130DC0E1100E
:103CA0000BC0F8018583C8010E940B1786E0F5015F
:103CB00011928A95E9F758CFC8010E948D0B88238D
:103CC000D1F2EE20C1F28091C101803238F2209110
:103CD000BC013091BD013A8329831B82DD82CC82F5
:103CE0008E83CE010196B8CFE83CF105F8F6FE2CA4
:103CF000EE2009F243131FC092131DC08091C10131
:103D000080FD10C0982F907F69F0F8018583903F67
:103D100031F0982F907F905F8F70892B8583C80139
:103D20000E940B1786E0F801ACEBB1E001900D9218
:103D30008A95E1F719CFC8010E948D0B81118ECFB2
:103D40008091C10181608093C101C8010E940B175D
:103D50000BCFEE2009F48FCFC8010E948D0BF82EF7
:103D6000882309F488CF86E0F801ACEBB1E001903C
:103D70000D928A95E1F78091BC019091BD010E945E
:103D80002E0B0E94111DF0CE81E08E25FBCEA7E107
:103D9000B0E0EDECFEE10C94F4254B8B5C8B6D8B6D
:103DA0007E8B8F8B6111109215021A8A198A85E019
:103DB000FE017396DE011D9601900D928A95E1F742
:103DC00086E0FE013D96DE01179601900D928A95E0
:103DD000E1F7CE0107960E94661D882359F016E090
:103DE0008091F3019091C201891343C06796E3E08B
:103DF0000C94102686E0FE013796DE0111960190A4
:103E00000D928A95E1F78A859B85892B41F38F81F5
:103E1000988589238F3F19F32091C20130E0C901B1
:103E20000196877099274091F3014817190671F49C
:103E30000E949C131092C2011092F30186E0ECEBF9
:103E4000F1E0DF011D928A95E9F7C9CF96E0929FD4
:103E5000D001939FB00D1124AD53BE4FFE0131969A
:103E600001900D929A95E1F78093C2010E94E80AB1
:103E7000B6CF819FC00111248D539E4F0E94661DB5
:103E8000882309F4B3CF8091F30190E00196877005
:103E900099278093F301A4CF1F920F920FB60F9230
:103EA00011242F933F934F935F936F937F938F933F
:103EB0009F93AF93BF93CF93DF93EF93FF93D091F3
:103EC000E900DF708091EC00C82FC17080FDC0E870
:103ED0001092E9008091F000877F8093F000789441
:103EE0000E94B2131092E9008091F00088608093E4
:103EF000F000CD2BCF70C093E900FF91EF91DF91DF
:103F0000CF91BF91AF919F918F917F916F915F9171
:103F10004F913F912F910F900FBE0F901F901895CA
:103F20001F920F920FB60F9211242F933F934F932E
:103F30005F936F937F938F939F93AF93BF93EF9311
:103F4000FF938091E10082FF09C08091E20082FF2F
:103F500005C08091E1008B7F8093E1008091DA00C1
:103F600080FF24C08091D80080FF20C08091DA00BB
:103F70008E7F8093DA008091D90080FF9DC080E120
:103F800089BD82E189BD09B400FEFDCF81E0809347
:103F90008F0280916A02811109C00E94AD030E94C4
:103FA00078048091E20084608093E2008091E100D7
:103FB00080FF17C08091E20080FF13C08091E20073
:103FC0008E7F8093E2008091E20080618093E20026
:103FD0008091D80080628093D80019BC85E08093DE
:103FE0008F028091E10084FF2BC08091E20084FF6A
:103FF00027C080E189BD82E189BD89B5982F917084
:1040000080FFFBCF8091D8008F7D8093D800809176
:10401000E1008F7E8093E1008091E2008F7E8093AB
:10402000E2008091E20081608093E2008091900242
:10403000882309F447C084E080938F0280918F0227
:104040008091E10083FF27C08091E20083FF23C0BD
:104050008091E100877F8093E10082E080938F026E
:10406000109290028091E1008E7F8093E100809118
:10407000E2008E7F8093E2008091E2008061809375
:10408000E20042E060E080E00E9446048091F0009F
:1040900088608093F000FF91EF91BF91AF919F9165
:1040A0008F917F916F915F914F913F912F910F90E1
:1040B0000FBE0F901F90189519BC10928F0210928E
:1040C0006A0274CF8091E30087FD93E090938F02A2
:1040D000B5CF78941F921FB61F9211248F939F9390
:1040E000AF93BF938091610290916202A0916302AD
:1040F000B09164020196A11DB11D8093610290935D
:104100006202A0936302B0936402BF91AF919F914A
:104110008F911F901FBE1F9018951F921FB61F9260
:1041200011248F939F93AF93BF938091600281116D
:1041300013C08091610290916202A0916302B091DC
:1041400064024196A11DB11D8093610290936202A9
:10415000A0936302B0936402BF91AF919F918F913E
:104160001F901FBE1F901895CDB7DEB760970FB692
:10417000F894DEBF0FBECDBF85B7806885BF85B719
:10418000806885BF1092BE021092C0021092BF02DA
:1041900080EC8093830381EC92E09093850380937D
:1041A0008403109282031092810310929E02109257
:1041B0009D021092A00210929F021092A2021092F1
:1041C000A1021092A4021092A3021092A6021092D1
:1041D000A5021092A8021092A7021092AA021092B1
:1041E000A9021092AC021092AB021092AE02109291
:1041F000AD021092B0021092AF021092B202109271
:10420000B1021092B4021092B3021092B80210924E
:10421000B70283EF95E090939A02809399028AE522
:1042200095E09093BA028093B90286E395E090936B
:10423000B6028093B50285E395E090939C0280934B
:104240009B0284B7877F84BF0FB6F894A8958091AE
:104250006000886180936000109260000FBE80E86B
:1042600090E00FB6F89480936100909361000FBEC8
:104270008EE798E090939501809394010E94AD039E
:104280000E9478048091E20084608093E200789438
:1042900080918F028823A1F01091E9001F70909106
:1042A000EC00892F817090FD80E8182B1092E900B6
:1042B0008091E80083FD0E94B2131F701093E90003
:1042C00082E084BD93E095BD9AEF97BD80936E0028
:1042D00080EF0E94800881EF0E94800880E30E94A6
:1042E000800881E30E94800882E30E94800883E3C3
:1042F0000E94800810922C0210922B02109223022E
:104300001092220290E080E00E944426883E9E4F58
:1043100011F00E94831682E090E00E94362680937E
:104320002D020E948E1390936602809365020E9474
:104330004A108FE39CE90197F1F700C000000E944A
:104340004A1080912B0280FF08C06FEF7FEF90E052
:1043500080E00E9468260E94630C83E090E00E9447
:104360003626682F70E090E080E00E940512809170
:104370002802811136C090E080E00E944426883EE9
:104380009E4F21F00E9483160E943A1088E090E030
:104390000E943E2660935502709356028093570206
:1043A000909358026E7F71F40E943A1088E090E07A
:1043B0000E943E26609355027093560280935702E6
:1043C000909358020E949D061092450280915502DA
:1043D00080FF04C060E086950E94DA0F81E0809340
:1043E000280281E091E090935D0280935C0288E175
:1043F000882E912C90E4E92EFF24F39455245394B5
:1044000080918F0210E102E1853009F4FFC10E9422
:104410004A10882359F08FB7F89440916102509167
:10442000620260916302709164028FBF90912B02CF
:1044300080912E02891761F0282F292780E011E052
:10444000312F322309F0FDC18F5F110F8430C1F786
:1044500090912C0280912F02891709F4FBC1282F1B
:10446000292780E011E0322F312309F4EEC121E049
:10447000CC24C394D12C8F832887912381E009F425
:1044800080E089870E9451068160782F9B878A8708
:104490004F81588569858B850E94C71EF601E25DB4
:1044A000FD4F808118271083809145028823D1F128
:1044B00080914402E0915502E695E81BE0934002AA
:1044C000823009F0D8C1F0E0E65CFE4FE4910E2F97
:1044D00010E0B9EBCB2EBEE0DB2E809141028823A9
:1044E00061F0109241020E94510690933F02809326
:1044F0003E0210924302109242020E945106E09145
:104500003E02F0913F028E1B9F0B8F3F9F4750F45E
:10451000E00FF11FF0933F02E0933E028EE392E042
:10452000F601099586E0E8E3F2E0DE0111960190DC
:104530000D928A95E1F710923A0210923B02109286
:104540003C0210923D021B810C81812F802B09F4CB
:1045500048C080913602909137020E9442069C0129
:1045600090913202992309F4AAC225313105C8F18C
:104570009F3F19F09F5F90933202112359F00E94E0
:1045800004089FEF11160CF491E0899F802D1124EF
:1045900080933A02002359F00E9404089FEF1016FE
:1045A0000CF491E0899F802D112480933B0230917F
:1045B0003A023323B1F020913B02222391F045EBE4
:1045C0003403C0011124992309F4AFC190933A0236
:1045D00045EB240390011124332309F4A9C130933E
:1045E0003B021D810E81812F802B09F448C08091F0
:1045F0003402909135020E9442069C019091310252
:10460000992309F457C221353105C8F19F3F19F0AC
:104610009F5F90933102112359F00E94E2079FEFB0
:1046200011160CF491E0899F802D112480933C0297
:10463000002359F00E94E2079FEF10160CF491E05E
:10464000899F802D112480933D0230913C023323B9
:10465000B1F020913D02222391F045EB3403C001DB
:104660001124992309F467C190933C0245EB24037C
:1046700090011124332309F461C130933D0246E0D7
:1046800050E0BE016F5F7F4F88E392E00E942926D1
:10469000892B11F00E94420786E0FE013196A8E3C3
:1046A000B2E001900D928A95E1F7E091B902F091A4
:1046B000BA02309719F089E992E009959FB7F8940A
:1046C0000091820380918103081708F43AC1081B06
:1046D0009FBFD12CC12C10E083E0682E712CAA243E
:1046E000A394B12C24E0322EC016D10608F42DC1BB
:1046F0000E94890690913002891380933002809144
:104700008F02843009F07CCE80911C018F708093E1
:10471000E9009091E80090FF73CE90918F02943061
:1047200009F06ECE8093E9009091F3008091F20041
:10473000892B09F465CE8091E8008E778093E8009C
:104740000E94CC035DCE80918F02843009F43DC07D
:104750001092450280912A02811116C050922A02BD
:1047600080915502982F9170909329028E7F8093AB
:104770005502FFEF20E742E0F15020404040E1F7D2
:1047800000C000000E94870C109260020FB6F894DF
:10479000A895809260000FBEE092600083B7817F91
:1047A000846083BF83B7816083BF7894889583B723
:1047B0008E7F83BF0FB6F894A895809160008861C2
:1047C00080936000109260000FBE80918E0288235B
:1047D000E9F00E944A1080912B0290912C02892BC3
:1047E000A9F019BD09BD09B400FEFDCF8091D80024
:1047F0008F7D8093D8008091E00082608093E000FC
:104800008091E00081FDFCCF0E949C1380918F027B
:10481000853009F498CF0E949C130E94890610925B
:104820002A0280912902882349F0809155028160F3
:104830008093550260E086950E94DA0F0E94CD0EAB
:10484000E6CD20E0D12CC12C16CE8F5F110F843025
:1048500009F009CE8FEF8C878D871E860E94510646
:104860008160782F988B8F874C855D856E858889D0
:104870000E94C71E19CE863059F4F0E0E95CFE4F65
:10488000E4910E2F10E0A9EACA2EAEE0DA2E25CE72
:10489000893061F4E695F0E0EC5CFE4FE4910E2F78
:1048A00010E0FDE1CF2EFEE0DF2E17CE8F3061F459
:1048B000E695F0E0EF5CFE4FE4910E2F10E0EFEB99
:1048C000CE2EEDE0DE2E09CE853159F4F0E0E25D2A
:1048D000FE4FE4910E2F10E071E7C72E7DE0D72E3A
:1048E000FCCD08E210E043EFC42E4CE0D42E88311A
:1048F00009F4F3CD833249F4ECE2F1E0059114912F
:1049000068E5C62E6EE0D62EE8CD04EF11E05CEB34
:10491000C52E5CE0D52E843209F4DFCD00ED17E022
:104920003CE9C32E36E0D32ED8CDF0923A0250CED9
:10493000F0923B0256CEF0923C0298CEF0923D02AD
:104940009ECE20918303020FC2CE8091810390E01E
:104950006091830370E00E94782520918403309158
:104960008503280F391FF90140802090BE02F7EF20
:10497000F415E8F4F092BE0220E040E0642D81E0FE
:1049800090E00E94CA022092BE022FB7F894809154
:10499000810390E001966091830370E00E94782586
:1049A000809381032FBFFFEFCF1ADF0A9DCE47FE12
:1049B00052C024E0221631F04092BB02B092C002F5
:1049C000A092BF02842D0E943705813069F08823B0
:1049D000D1F08230A9F0833099F01092BE0210928B
:1049E000C0021092BF02D1CF8093BE0220E040E00F
:1049F000642D81E090E00E94CA021092BE02C5CFF1
:104A00008093BE02C2CF40EF4416E1F087EF481218
:104A1000E4CF2091BF023091C002C901B3010E94CE
:104A20006425FC01E756FD4F42A2C901019690930F
:104A3000C0028093BF022091BD024091BC026091F0
:104A4000BB02D9CF3092BE024092BB02B092C002EC
:104A5000A092BF029ACF222009F497CF2091BF02E3
:104A60003091C002C901B3010E946425AC01FC0170
:104A7000E756FD4F42A2C90101969093C002809370
:104A8000BF024130510589F04230510509F07DCF18
:104A90002091BD024091BC026091BB020E94CA02FB
:104AA0008091BE02843091F670CFE2E020E02E12B9
:104AB0006CCFF0CF2B30310508F0AACDE0CD2B30F4
:104AC000310508F057CD8DCDAA1BBB1B51E107C0A6
:104AD000AA1FBB1FA617B70710F0A61BB70B881F8E
:104AE000991F5A95A9F780959095BC01CD0108951D
:104AF00097FB072E16F4009407D077FD09D00E948B
:104B0000642507FC05D03EF4909581959F4F08954C
:104B1000709561957F4F0895A1E21A2EAA1BBB1BC9
:104B2000FD010DC0AA1FBB1FEE1FFF1FA217B30779
:104B3000E407F50720F0A21BB30BE40BF50B661F8F
:104B4000771F881F991F1A9469F760957095809553
:104B500090959B01AC01BD01CF010895EE0FFF1FA1
:104B60000590F491E02D09940E94BC25332312F4A2
:104B70008A1B9B0B0C94CD25A29FB001B39FC00153
:104B8000A39F700D811D1124911DB29F700D811D79
:104B90001124911D08950E94BC25B7FF0895821B22
:104BA000930B08950E94BC25A59F900DB49F900D76
:104BB000A49F800D911D11240895B7FF0C94D22558
:104BC0000E94D225821B930B08952F923F924F9201
:104BD0005F926F927F928F929F92AF92BF92CF928D
:104BE000DF92EF92FF920F931F93CF93DF93CDB796
:104BF000DEB7CA1BDB0B0FB6F894DEBF0FBECDBF0E
:104C000009942A88398848885F846E847D848C84DE
:104C10009B84AA84B984C884DF80EE80FD800C81E7
:104C20001B81AA81B981CE0FD11D0FB6F894DEBFCA
:104C30000FBECDBFED010895FC014150504030F052
:104C400001900616D1F73197CF010895882799274B
:104C50000895FB01DC0104C08D910190801921F4BD
:104C600041505040C8F7881B990B0895F999FECF21
:104C700092BD81BDF89A992780B50895A6E1B0E06C
:104C800044E050E00C947026A8E1B0E042E050E02F
:104C90000C947026262FF999FECF92BD81BDF89A0B
:104CA000019700B4021639F01FBA20BD0FB6F89470
:104CB000FA9AF99A0FBE08950396272F0E944B2661
:104CC0000E944A26252F0E944B26242F0C944B2607
:104CD0000196272F0E944B260C944A26DC01CB011B
:104CE000FC01F999FECF06C0F2BDE1BDF89A3196FC
:104CF00000B40D9241505040B8F70895F894FFCF9A
:104D00009114B9145B16B9145B16EC140D155B16EF
:104D10000A161716CB19CB19041A041AA61AC01AA8
:0C4D2000321A321ACB1AA11BB01BB01BB8
:104D2C003E3205230C020CFD0BF80B310501191A50
:104D3C001B1C1D1E1F2021220102010383400000A9
:104D4C000104400000010001818283E200E900EAD5
:104D5C0000B500B600B700CD008301CC008A0192EB
:104D6C000194012102230224022502260227022A91
:104D7C0002B300B4006F007000F0F1303132330038
:104D8C0001020202020606060909090909090F0FA8
:104D9C000F0F0F0F151515181919191919191919AC
:104DAC001919232402030200000100010101010171
:044DBC0000010100F1
:00000001FF
